:020000040000FA
:0600000056EF13F01200A0
:0608000056EF13F0120098
:0608080035EF0DF01200B7
:020818001200CC
:06082A0001001827000088
:08083000E201000016000000C7
:08083800060E00017D5D05E3E1
:100840006D50020B01E0120001D81200D9CFE6FF73
:10085000DACFE6FFE1CFD9FFE2CFDAFFE652400E72
:10086000E66E020EE66E010EE66E4DEC11F0E552FC
:10087000E552E552000958E00101006B0101025107
:10088000FF0A3FE05F0A15E0A00A0AE0440A01E01F
:1008900037D00101050E036F0101020E006F33D046
:1008A0000101046B0101010E056F0101040E006FCF
:1008B0002AD00101035104E003C1E6FF23DBE55226
:1008C000010E01014A6F4B6B0101150E4A5D000ECE
:1008D0004B5912E2D5DAE66E020E01014A25E96EA5
:1008E000010E01014B21EA6EE552E750EF6E010166
:1008F0004A2B000E4B23E8D70101150E006F03D0E1
:1009000002D0FF0000D0010100510EE004010CBF35
:100910000BD000C1E6FF020EE66E010EE66E23EC80
:1009200011F0E552E552E552E552E552E5CFDAFF26
:10093000E7CFD9FF120074EC09F0ACA2FED7FD0E90
:10094000DB50AD6E91EF09F0A8EC0FF06FBE02D056
:10095000CAEC0FF0120074EC09F001016F6B546BDC
:10096000556B400E545D000E555907E2820E54251A
:10097000E96E010E14EC0AF0F4D7546B556B200E9F
:10098000545D000E555907E2C20E5425E96E010E62
:1009900014EC0AF0F4D7546B556B020E545D040E40
:1009A000555904E20A0E97EC09F0F7D7910EAB6E99
:1009B000AB8E949C948E829E828C240EAC6E186AB0
:1009C0006C0E196EDC0E1A6E020E1B6E18C006F04D
:1009D00019C007F01AC008F0096EFA0EDBCF0BF051
:1009E000FB0EDBCF0CF0FC0EDBCF0DF0FD0EDBCFF2
:1009F0000EF0CEEC09F0040E0B6E0C6A0D6A0E6A56
:100A0000CEEC09F01406000E155A165A175A14C0E7
:100A100073F115C074F114C0AFFF15C014F0155078
:100A2000B06E9D9A9E9A480EB86E83948392AECF14
:100A300069F191EF09F00101410E6B6F6C6F546B1E
:100A4000556BEBEC09F004E20B0E97EC09F0F9D7CB
:100A50003E0EE66E250EE66E000E2EEC0AF001014B
:100A6000546B556BEBEC09F004E20B0E97EC09F0BC
:100A7000F9D7B2EC09F0380EE66E250EE66E000EE0
:100A80002EEC0AF0B2EC09F04B0E01016C5D02E0B5
:100A9000000E01D0010E146E4F0E6B5D02E0000ED1
:100AA00001D0010E141401E0000C010C0101546B83
:100AB000556BEBEC09F004E20D0E97EC09F0F9D759
:100AC00039EC0AF02D0EE66E250EE66E000E70EC87
:100AD00009F0270EE66E250EE66E000E26EF0AF0F0
:100AE00058EC0AF0E652660EF36E020EF3CFDBFF0F
:100AF0000101566B576B300E565D750E575917E254
:100B0000020EE66E64EC13F0E5527ED800090AE0AE
:100B10000101300E566F750E576F330EF36E020ED5
:100B2000F3CFDBFF0101562B000E5723E4D7020E53
:100B3000DB5033080EE1DF6AFB0EDB50DF5C09E2BD
:100B400063D80009FDE0A5EC09F001E3DB2ADF2A08
:100B5000F3D7E552E552E552E4D3220EE66E250EB8
:100B6000E66E000E2EEF0AF0BFDB46D8F3CF14F08E
:100B7000F4CF15F0F350F410F8E111EC0AF005E0B1
:100B800011EC0AF0E66E2DD8E552FC0EDBCFE9FF42
:100B9000DB2AFD0EDBCFEAFF01E3DB2AEF50E5E1C4
:100BA000828CBFD3A1DBACA2FED7E0DB05E0DEDBAD
:100BB000E66E19EC13F0E552D950FB0FE96EFF0E0B
:100BC000DA20EA6EEFCFF6FFEE2AEFCFF7FF000E46
:100BD000EE22EFCFF8FFEE220800F550E4E1828C20
:100BE000A0D346EC0AF0AD6E9CD346EC0AF0AD6E95
:100BF000ACA2FED7828C95D3ACB203D0010EF36EBB
:100C000001D0F36AF46A12009EBA010C000C58EC91
:100C10000AF0DF6AFB0EDB50DF5C08E2F5DF00095B
:100C2000FDE093DB01E3DB2ADF2AF4D7E552E5524E
:100C300078D35ADBE652AE50DF6EDF50E55271D307
:100C400046EC0AF0080A1CE00F0A18E0010A14E05A
:100C5000030A10E0010A0CE0070A08E0010A04E0B8
:100C6000030A11E1C26A10D0040E0BD0080E09D09D
:100C70000C0E07D0100E05D0140E03D0180E01D0A4
:100C80001C0EC26E01D0C26AC28089EC13F084ECE3
:100C900013F00009FCE106D8F3CF5AF1F4CF5BF171
:100CA000C2903FD358EC0AF0C350DF6E010EC4CFA0
:100CB000DBFFDECF14F0DDCF15F014C0F3FF15C05D
:100CC000F4FFE552E5522DD30FDBFC0EDBCF5EF1D6
:100CD000FD0EDBCF5FF10101606B616B5FAF02D096
:100CE00060696169E40E0B6E0C0E0C6E62DB45EC04
:100CF00012F002C05EF103C05FF104C060F105C0F4
:100D000061F10A0E0101D890613360335F335E33C5
:100D1000E806F9E10A0E0B6E0C6A4BDBA1EC12F04F
:100D200006C05EF107C05FF108C060F109C061F163
:100D300006C05CF107C05DF106C058F107C059F16B
:100D4000640E0D6E0E6A06C008F007C009F048DB9D
:100D50006B6F2E0E6C6F640E4DDB04C05CF105C032
:100D60005DF104C058F105C059F10A0E0D6E0E6A0E
:100D700004C008F005C009F033DB6D6F5CC158F1A9
:100D80005DC159F10A0E36DB04C058F105C059F1B6
:100D9000300E010104246E6FC4D2010115DBADDAFF
:100DA000FEE17F517819FBE136DB02E2000E01D053
:100DB000010EF41103E0010EF46F12000101546BF7
:100DC000556B0101E4510101545D0101E55101013F
:100DD000555922E2790E5425E96E010E5521EA6E2D
:100DE000EF50E66E820E0101EC25E96E010EED2159
:100DF000EA6EE552E750EF6E010E34DB156AEC2522
:100E0000146EED5118DB04C0ECF105C0EDF10101E9
:100E1000542B000E5523D5D70101E66BE76B7EC13D
:100E200075F17FC176F10101EC510101751904E101
:100E30000101ED510101761911E00101E62B000ECF
:100E4000E723010E0FDB0101156A7525146E76513B
:100E5000F2DA04C075F105C076F1E5D70101E4517D
:100E6000E65DE551E75901E3F56BAEDA46DAFEE1FE
:100E70007F517819FBE1CFDA02E3010EF46F120023
:100E80000101EC5101017E1904E10101ED51010163
:100E90007F1902E0000E01D0010E0101F51103E0FF
:100EA00001014F6B29D0820E01017E25E96E010EF2
:100EB0007F21EA6EEFCF4FF1010E0101D3DA01017C
:100EC000156A7E25146E7F51B6DA04C07EF105C026
:100ED0007FF1010179DA11DAFEE17F517819FBE146
:100EE0009ADA01E2F46BEC5101017E1908E101018B
:100EF000ED5101017F1903E10101010EF56F0101BF
:100F00004F511200F1D901018051811102E0000E10
:100F100001D0010E176E0101F251EE1902E1F351F9
:100F2000EF1902E0000E01D0010E2CDA02E181512E
:100F3000151802E0000E01D0010E0101F611161085
:100F400032E1C20EEE25E96E010EEF21EA6EFD0ED2
:100F5000DBCFEFFFF251EE5DF351EF5903E3EE6BA0
:100F6000EF6B03D0EE2B000EEF23F76B01018051E6
:100F7000811102E0000E01D0010E176E0101F25145
:100F8000EE1902E1F351EF1902E0000E01D0010E5B
:100F9000F9D902E18151151802E0000E01D0010ECD
:100FA000161003E00101010EF66FBBD10101EE51F5
:100FB0000101801904E10101EF510101811902E0F1
:100FC000000E01D0010E0101F71103E001014F6B8A
:100FD00023D0C20E01018025E96E010E8121EA6E47
:100FE000EFCF4FF10101F2510101805D0101F35199
:100FF0000101815903E3806B816B03D0802B000ECC
:1010000081230101F66BEE510101801908E1010114
:10101000EF510101811903E10101010EF76F010197
:101020004F51120033DA02E1300E04D0FD0EDB0422
:1010300001E1310E76D19EAA77D0AECF69F1790E5B
:101040000101E825E96E010EE921EA6E69C1EFFFB1
:10105000010E156AE825146EE951152214C008F036
:1010600015C009F0E4C10DF0E5C10EF06BEC10F015
:101070000101E5AF04D0046C051E000E052204C07A
:10108000E8F105C0E9F1045005104EE10101795184
:1010900002E0790549E18450020B01E0010EE66EA1
:1010A000C1DFE552300804E1010E0101E26F02D018
:1010B0000101E26BE36B010EE21901E1E35102E091
:1010C000000E01D0010E146E0101790502E0000E40
:1010D00001D0010E141402E0848401D08494010133
:1010E000010EE21921E1E3511FE10101C20E426F3D
:1010F000010E436F7AC144F17AC1E6FF21D9020E95
:10110000436F7BC144F17BC1E6FF1AD9040E436FE4
:101110007CC144F17CC1E6FF13D9050E436F7DC14C
:1011200044F17DC1E6FFACD99EA020D06BD94BD84D
:101130000101F7511AE10101716B726B050E715DCE
:10114000000E725912E232DF01016A6F6A5105E046
:101150006AC1E6FF4ADDE55203D0050E716F726B7E
:101160000101712B000E7223E9D79E90120001013C
:10117000656B666B636B626B646B686BBD6ABA6A46
:101180009D80D09EF28CF28EFD0EE66EC5EC12F0C4
:10119000E55202EF0AF0BD6ABA6AC26A0F0EC16E6A
:1011A000FD0EC06E070EB46E100E926E9368BF0EE9
:1011B000946EB90E956E966A896A8A6A8B6A040E75
:1011C0008C6E8D6A1200030E0101625D3DE3626B5D
:1011D0003ED8090E0101635D34E3636B39D83B0EE1
:1011E0000101665D2BE3666B34D83B0E0101655D42
:1011F00022E3656B2FD8170E0101645D19E32BD82C
:1012000001016851146E156AD890155004E6FE0E5F
:10121000145C000E155809E31FD80101686B656B5B
:10122000666B626B636B646B1200682B2CEF09F0CA
:10123000642B2BEF09F0652B2AEF09F0662B29EFC1
:1012400009F0632B28EF09F0622B27EF09F0120059
:10125000120012001200120012000101546B556BB3
:10126000BAD803E21E0E63D8FBD703D91A0EE66E76
:10127000250EE66E000E34D8120EE66E250EE66ED2
:10128000000E2ED80A0EE66E250EE66E000E28D849
:10129000010EE66E250EE66E000ED8D00101546BED
:1012A000556B99D803E21E0E42D8FBD7E2D8FA0E4E
:1012B000E66E240EE66E000EC9D00F0EC16E92903F
:1012C000929292849296929A969096829694809018
:1012D000809280948096809A849084928494120064
:1012E000BDD8D8D894DCE8D0D9CFE6FFDACFE6FF76
:1012F000E1CFD9FFE2CFDAFF12000101EA2B000EA5
:10130000EB23010EAFD80101156A7725146E7851D1
:1013100092D804C077F105C078F101017E5104181C
:101320001200E552E5CFDAFFE7CFD9FF1200E66EF3
:1013300046EC13F0E5520101542B000E5523120028
:101340009FD80101C20E426F120073DCE76E010EDE
:10135000E7CFDBFFA6D8010EDBCFEFFFFC0EDB2AC9
:10136000FD0E120097D870EC05F0A6D0FB0EDBCF77
:10137000F6FFFC0EDBCFF7FFFD0EDBCFF8FF08001A
:10138000F55012001714166E010E156AEE25146E34
:10139000EF511522010180511418120091EC10F048
:1013A00006C014F007C015F008C016F009C017F009
:1013B00012000D6A0E6A5EC106F05FC107F060C1DF
:1013C00008F061C109F01200EA6BEB6BECC177F138
:1013D000EDC178F11200240E545D040E555912002F
:1013E00030EC13F008C058F109C059F1300E01017A
:1013F000082412000D6E0E6A5CC108F05DC109F090
:1014000030EF13F0C40EE66E6D0EE66EE6EC12F0F1
:10141000E552E55212000101EA51E45DEB51E55954
:1014200012003FD8EF5012005521EA6EEF6A542B9C
:10143000000E55231200152214C008F015C009F043
:1014400016C00DF017C00EF030EF13F049DF380E64
:10145000E66E250EE66E000E70EF09F0E66ED2EC39
:1014600005F02AD0176AF025166EF1511722010EE9
:1014700012003E0EE66E250EE66E000E70EF09F0CD
:10148000E66E42C1E6FF5CEC0BF016D02DDFFD0EE0
:10149000DB501200030EE66E6B0EE66E010EE66E7A
:1014A0001200FC0EDBCFE9FFFD0EDBCFEAFF1200DE
:1014B0001BDFE652E6521200E552E552E5521200F9
:1014C000C66A800EC76E770EC86E280EC66EC56AD5
:1014D00093809382120043D9C750040B01E0010EA0
:1014E00034D9FAE1C580C5B0FED7A1B64AD0FD0E09
:1014F00026D943E1C750040B01E0010E26D9FAE1D9
:10150000C5BC3BD0FC0E1BD938E1C750040B01E031
:10151000010E1BD9FAE1C5BC30D0FB0E10D92DE16C
:10152000C750040B01E0010E10D9FAE1C5BC25D06B
:10153000C582C5B2FED7A1B620D0FD0EDB28E66E6F
:101540007CD8E552000919E1C750040B01E0010EF7
:10155000FCD8FAE1C5BC11D0C58694D80101FB6F57
:10156000E80402E1010E0BD0C58AC588C5B8FED7D4
:10157000C584C5B4FED7A1A60BD0010E0101FC6F36
:10158000FD6BC66A280EC66E010EF36EF46A06D0B5
:10159000FDD8C950156AF36E15C0F4FFE7D0DFD847
:1015A000C750040B01E0010ED0D8FAE1C580C5B0E8
:1015B000FED7A1A602D0F9D83BD0FD0EC0D821E1BC
:1015C000C750040B01E0010EC0D8FAE1C5BC1CD025
:1015D000FC0EB5D816E1C750040B01E0010EB5D8DA
:1015E000FAE1C5BC11D0FB0EAAD80BE1C750040B21
:1015F00001E0010EAAD8FAE1C5BC06D0FA0E9FD8C8
:1016000006E0A8D8FD0E18D0A5D8FE0E15D0C750FC
:10161000040B01E0010E99D8FAE1C584C5B4FED7E8
:10162000050EE66E02EC13F0E552A1A603D092D8A7
:10163000FF0E02D0ABD8000E99D0AED8FD0EDB5015
:10164000C96EC6AE02D0FF0E1CD00101F96BFA6B59
:10165000D890FA5104E6F40EF95D010EFA5910E241
:10166000F30EF91907E1010EFA1904E1010EFC6FFE
:10167000FD6B07D0C7B002D0000E03D07DD8E8D7ED
:10168000000E74D00101F96BFA6BD890FA5104E6A0
:10169000F40EF95D010EFA590EE2F30EF91907E1A5
:1016A000010EFA1904E1010EFC6FFD6B010CC5A6D9
:1016B000000C62D8EAD7000C52D8C750040B01E0E6
:1016C000010E43D8FAE1C580C5B0FED7A1A602D06D
:1016D0006CD830D0FD0E33D816E1C750040B01E0B2
:1016E000010E33D8FAE1C5BC11D0FC0E28D80BE1AD
:1016F000C750040B01E0010E28D8FAE1C5BC06D0A2
:10170000FB0E1DD806E026D8FD0E18D023D8FE0EFD
:1017100015D0C750040B01E0010E17D8FAE1C584BB
:10172000C5B4FED7050EE66E02EC13F0E552A1A695
:1017300003D010D8FF0E02D029D8000E17D0DBCF6F
:10174000E6FF7BDFE55200091200146E1F0EC51480
:10175000141012002AD8C66A280EC66E12001CD8B1
:10176000F29CF29E0101FC6BFD6B1200E552E5CF8D
:10177000DAFFE7CFD9FF1200010EE66E72EC13F02C
:10178000E5520101F92B000EFA231200F28CF28EC1
:10179000C66A280EC66E1200D9CFE6FFDACFE6FF82
:1017A000E1CFD9FFE2CFDAFF1200010E0101FC6F99
:0417B000FD6B1200BB
:0C17B40004011851600BE842E842E842D2
:1017C000E842E842000901E012001951070A40E02E
:1017D0000B0A3EE0070A33E0010A23E00B0A1FE090
:1017E000020A1DE0030A19E0080A10E0010A0CE0F1
:1017F0000F0A08E0030A01E012002FD90001040ECD
:101800007D6F120029EF0CF060EF0CF026D900017B
:101810007F0E626F000E636F0CD07BEF0CF0ADEFAC
:101820000CF01FD90001626F636B800E6227000EFF
:10183000632300017E930001010E686F120011D92D
:10184000EA6A800FE96E000EEA221AC4EFFF120066
:101850001200800E0401185D32E11B51030A21E0E1
:10186000010A0CE0030A29E1F8D800012E0E626F8C
:10187000230E636F000E646F120E1CD0EED8DC0EC8
:10188000146E230E156E000E99D8020EF626000E69
:10189000F722F8220900F5CF68F00A00F5CF69F0C9
:1018A0000CD0DBD8E20E146E230E156E000E86D817
:1018B0000800F5500001686F696B00017E8312001B
:1018C000CCD80F0EE66E710EE66E0F0EBAD8010E72
:1018D000E66E800EE66E000EB4D81AC47FF00401E6
:1018E0001A5104E10001050E7D6F12000001060E81
:1018F0007D6F0EEF11F00401206B216B0401185174
:101900001F0B020A0FE0030A0BE0010A18E1A5D839
:101910000401208100017EA112D0040120830FD098
:101920009CD80DD079D801E0010E82D865C0E9FFBE
:10193000EA6EEF50040B03E00401010E206F00017A
:1019400061050AE10001200E626F040E636F000161
:101950007E930001020E686F120004011A050EE169
:1019600018511F0B00090AE178D8030E0401195D14
:1019700003E100017E8102D000017E9104011A5131
:101980001CE118511F0B020818E11C510F0B000934
:1019900014E042D801E0010E4BD8030E0401195D9A
:1019A00004E1840E55D8EF6E12001CAF03D050D85E
:1019B000EF6A1200880E4CD8EF6E1200166E1AC431
:1019C00017F0186A196A030E0C6E0D6A0E6A17C0BA
:1019D00007F018C008F019C009F0C5EC10F0145059
:1019E0000424F36E15500520F46E16500620F86E90
:1019F000F4CFF7FFF3CFF6FF0900F5CF62F009004F
:101A0000F5CF63F00800F5CF64F062C0F6FF63C065
:101A1000F7FF64C0F8FF120024D80F0B080DF35035
:101A2000156A000F146E040E15221C51800B120053
:101A3000040DF35000011424656F000E1520666F2D
:101A40001200E66E50EC10F0E552E552E55212003D
:101A500065C0E9FF66C0EAFF12000001010E616F78
:0A1A60001200FBDF04011C5112000C
:061A6A00E9CFE4FFEACF22
:101A7000E4FFF6CFE4FFF7CFE4FFF8CFE4FFF5CFC4
:101A8000E4FFF3CFE4FFF4CFE4FFFACFE4FFFBCFB2
:101A9000E4FF00EE00F0140EE80403E3EECFE4FFF1
:101AA000FBD700EE14F0080EE80403E3EECFE4FFEA
:101AB000FBD7E6521BEC08F0E55200EE1BF0080ED7
:101AC000E80403E3E5CFEDFFFBD700EE13F0140EBF
:101AD000E80403E3E5CFEDFFFBD7E5CFFBFFE5CF60
:101AE000FAFFE5CFF4FFE5CFF3FFE5CFF5FFE5CF54
:101AF000F8FFE5CFF7FFE5CFF6FFE5CFEAFFE5CF4B
:101B0000E9FF1100A2D80001786B796BE1D803E2FC
:101B1000010EB5D8FBD760EC0AF0CBEC08F05DEC19
:101B200009F000017A6B7B6B0A0E7A5D000E7B591F
:101B30000EE2786B796B0C0E785D040E795903E236
:101B40000A0E9DD8F8D77A2B000E7B23EDD7A7D8A5
:101B50000001786B796BBCD803E20A0E90D8FBD7F2
:101B60001BEC05F000094CE0800EE66E250EE66EDB
:101B7000E66AB3D80001786B796B99D803E2010E5D
:101B80007ED8FBD71BEC05F0000919E095D83C0E78
:101B90007A5D000E7B590AE2786B796B88D802E295
:101BA00074D8FCD77A2B000E7B23F1D70A0E9DD870
:101BB0000001786B796B7BD8F9E267D8FCD700011C
:101BC000786B796B74D803E2140E59D8FBD756ECB6
:101BD00005F065D800017A6B7B6B1E0E7A5D000EF6
:101BE0007B5916E2786B796BB80E785D0B0E7959DC
:101BF00003E2010E44D8F8D77A2B000E7B23EDD7F1
:101C00000001786B796B64D803E20A0E38D8FBD7F1
:101C10002DEC09F0839450D8280E7A5D000E7B5984
:101C20000AE2786B796B43D802E22FD8FCD77A2B83
:101C3000000E7B23F1D7B7EC08F09D8A0001786B8A
:101C4000796B35D8FBE221D8FCD7100E926EC26AB0
:101C50000F0EC16E3C0EC06E070EB46E9368BF0EC1
:101C6000946EB90E956E040E8C6E966A8D6A120093
:101C7000A8EC0FF06FBE02D0CAEC0FF0120035D8FE
:101C80000001782B000E79231200010E2ED8F0DF10
:101C90001CEC04F00001782B000E79231200400E9A
:101CA000E66E0D0EE66E030EE66E6DEF0EF0240E80
:101CB000785D040E79591200140E6F6E00017D6B71
:101CC00000017E6B00017F6B00017A6B7B6B120061
:101CD000020E785D040E79591200E66AABEC04F04E
:101CE000E552E552E552E5521200E66E46EC13F07D
:041CF000E5521200A7
:0C1CF4006C5002E0000E01D0010E00094F
:101D00000BE0040100513C0BE842E8420D0802E1FF
:101D100095EF0EF09FEF0EF06C5002E0000E01D038
:101D2000010E040901E01AD81200E6D80001606B28
:101D3000616B686B696BDAEC0BF09DD8E7D0020E33
:101D40000001605D09E16BD8040100BD02D0C80E3E
:101D500001D0880E006F120074EF0FF0040E000126
:101D60007D5D09E11AC46EFF6E50000802E2050EA7
:101D700001D0030E7D6F0001600509E10AD804015E
:101D800004BD02D0C80E01D0880E046F120074EF9B
:101D90000FF0B2D8E6520001080E685D000E6959D6
:101DA00005E268C0DEFF69C0DDFF03D0080EDE6E0D
:101DB000DD6A040104930491010EDB500413DFCFAC
:101DC00005F4000EDB500001685F010EDB50695B1B
:101DD000200E656F040E666F00017EA311D0B1D88E
:101DE0001CE062C0F6FF63C0F7FF64C0F8FF0800A4
:101DF000F5509BD86423DF06010EF1E2DB06EFD736
:101E0000A0D80BE062C0E9FF63C0EAFFEF508DD8B5
:101E1000DF06010EF5E2DB06F3D7E55277D06CD88A
:101E2000E652030E04010015E76E010EE7CFDBFF5B
:101E300001C4DFFFDE5000016827DD506923200E5A
:101E4000626F040E636F7DD814E062C0E9FF63C067
:101E5000EAFFEF5065C0E9FF66C0EAFFEF6E652B51
:101E6000000E6623622B6323DF06010EECE2DB0625
:101E7000EAD7E5524BD00001615105E14ED8840EFE
:101E8000006F04011DD0040118AF1CD0000168517F
:101E900004011E5D0001695104011F5904E21EC4C2
:101EA00068F01FC469F075DF0001010E606F35D85E
:101EB000800E006F0401200E066F040E076FC80E1F
:101EC000046F10D00001020E606F0401056BC80E94
:101ED000046F0401080E016F200E026F040E036FE1
:101EE000C80E006F6D9812000001606B16D8880E46
:101EF000006F0401046B1200D9CFE6FFDACFE6FFD2
:101F0000E1CFD9FFE2CFDAFFE6521200E552E55207
:101F1000E5CFDAFFE7CFD9FF12000401080E016F09
:101F2000180E026F040E036F120065C0E9FF66C051
:101F3000EAFFEF6E0001652B000E6623622B632320
:101F40001200D9CFE9FFDACFEAFFEE50ED10120010
:101F500080A804D06DB604D00FD802D06DB613D8C7
:101F600000017D0508E16DBA06D0686A696A69807A
:101F70006988020E7D6F12006D6A696A6D860001C4
:101F8000010E7D6F12006D6A696A00017D6B12009F
:101F9000C3EF0FF000017D5101E112006850040B06
:101FA00004E06950040B01E038D86DB212006850AB
:101FB000010B04E06950010B01E050D86850100B90
:101FC00004E06950100B01E024D86850400B04E095
:101FD0006950400B01E037D86850200B04E069508D
:101FE000200B01E032D86850020B04E06950020B6C
:101FF00001E032D8030E00017D5D01E2120068505D
:10200000080B06E06950080B03E07AEC0EF06896C6
:102010001200698468986D8212006D9269946894C8
:10202000120000017EA10ED0F8DF6D840101080EC0
:10203000FE6F070EFF6FFE07000EFF5BFE51FF11E4
:10204000FAE16D941200689C120070A003D074EC49
:102050000FF07090689A1200689212006A6A686ABB
:102060009F0E6B6E7B0E696E6E6A0F0EE66E710EC2
:10207000E66E0F0EE66E14D8E552E552E552160EE6
:10208000706E68A602D06896FCD76D9874EC0FF05D
:1020900000017E9100017F6B0001030E7D6F120035
:1020A000D9CFE6FFDACFE6FFE1CFD9FFE2CFDAFF03
:1020B000FC0EDBCFE9FFFD0EDBCFEAFFFB0EDB50B2
:1020C00004E0EE6AFB0EDB06F9D7E552E5CFDAFF56
:0620D000E7CFD9FF12006A
:0A20D600006A0EAE74EF10F00D6CFE
:1020E0000E1EE86A0E22001E09AE7CEF10F0086C8E
:1020F000091EE86A0922001E30EC13F009BE8CEFBD
:1021000010F000AE000C086C091EE86A0922046C8D
:10211000051EE86A0522000C00BE83EF10F001885E
:10212000FF0C006AE86A0EAE9EEF10F00B6C0C1EFE
:102130000D1E0E1E0C220D220E22001E09AEA9EF4E
:1021400010F0066C071E081E091E0722082209222D
:10215000001EA1EC12F009BEC0EF10F000AE000CA2
:10216000066C071E081E091EE86A072208220922BB
:10217000026C031E041E051E032204220522000C0D
:1021800000BEB0EF10F00188FF0C09C013F008C0CA
:1021900012F007C011F007500C02F4CF05F0F3CF96
:1021A00004F008500D02F4CF07F0F3CF06F00C0254
:1021B000F3500526F4500622E86A072211500D025A
:1021C000F3500526F4500622E86A072209500C0253
:1021D000F3500626F450072209500D02086AE86AF7
:1021E0000822F3500726F450082211500E02F35033
:1021F0000626F4500722096AE86A082209221250CA
:102200000E02F3500726F4500822E86A0922135000
:0C2210000E02F3500826F4500922000CC6
:04221C000001816BD1
:102220001E0E716E0401400E096F280E0A6F040E17
:102230000B6F880E086F0401680E0E6F040E0F6F8F
:10224000400E0C6F120064D8E652FB0EDB504008C3
:1022500005E2400EF36EFB0EF3CFDBFFDF6AFB0EF1
:10226000DB50DF5C0FE2DF5047D8EF50E66EDF5007
:10227000EA6A680FE96E040EEA22E552E750EF6E53
:10228000DF2AEDD7FB0EDBCF0DF4400E04010C1757
:102290000C7D880E0C13E55244D03AD80001816BB6
:1022A000040108BF26D0FB0EDBCF14F00951D88003
:1022B000145403E2FB0E09C4DBFF0001816BFB0E2B
:1022C000DB50815D0FE28151EA6A280FE96E040E4E
:1022D000EA22EF50E66E81510FD8E552E750EF6EDB
:1022E000812BEDD70401400E096F0817087D880E79
:1022F00008130001815115D0E76EFC0EDBCFE9FF1A
:10230000FD0EDBCFEAFFE750E926000EEA221200BD
:10231000D9CFE6FFDACFE6FFE1CFD9FFE2CFDAFF90
:0E2320001200E552E5CFDAFFE7CFD9FF120039
:02232E0012019A
:10233000000200000008D804AFFE00000102000106
:10234000090220000101008032090400000200009F
:10235000000007050103400020070581034000201D
:1023600004030904340354004800450020005300CE
:1023700049004C00490043004F004E002000480037
:102380004F00520049005A004F004E00000000006C
:1023900000000000000000004403740065006300BA
:1023A0006800460058000000000000000000000027
:1023B000000000000000000000000000000000001D
:1023C000000000000000000000000000000000000D
:1023D000000000000000000000000000402300405A
:0B23E00023006023006423009823000A
:0423EC002A0EF66E51
:1023F000080EF76E000EF86E00010900F5506F6FC1
:102400000900F550706F03E16F6701D03DD00900FE
:10241000F5506A6F0900F5506B6F0900F5506C6F4D
:1024200009000900F550E96E0900F550EA6E09004F
:1024300009000900F5506D6F0900F5506E6F090035
:102440000900F6CF71F0F7CF72F0F8CF73F06AC0E1
:10245000F6FF6BC0F7FF6CC0F8FF00016D5302E19F
:102460006E5307E00900F550EE6E6D07F8E26E0757
:10247000F9D771C0F6FF72C0F7FF73C0F8FF000113
:0A2480006F07000E705BBFD712005B
:06248A0006500B02F3CF27
:1024900002F0F4CF03F00C02F3500326000EF420F8
:1024A000046E06500D02F3500426000EF420056E53
:1024B00006500E02F350052607500B02F350032678
:1024C000F4500422000E052207500C02F35004269B
:1024D000F450052207500D02F350052608500B0258
:1024E000F3500426F450052208500C02F350052640
:0A24F00009500B02F35005261200FC
:0624FA004154534D300D6A
:102500000041544E4947554E0D0041544E4A4646EF
:102510000D004154494433330D004154534331328B
:102520000D00626C616800415457520D00415442E5
:102530004433306434300D004154434E0D002B2B96
:022540002B006E
:0E254200056A046A036A026A200EE76ED890EA
:10255000063607360836093602360336043605369F
:102560000B50025C0C5003580D5004580E50055887
:1025700009E30B50025E0C50035A0D50045A0E50E2
:0A258000055A062AE72EE4D71200E0
:06258A00D9CFE6FFDACF15
:10259000E6FFE1CFD9FFE2CFDAFFFD0EDB507E0B85
:1025A000CD6EFD0EDBAC02D0CD8E01D0CD9ECF6ABC
:1025B000CE6A9E90DBAE02D09D8001D09D90CD80F2
:0C25C000E552E5CFDAFFE7CFD9FF1200AB
:0425CC00D9CFE6FF7E
:1025D000DACFE6FFE1CFD9FFE2CFDAFFE652E652EB
:1025E000FC0EDBCFDEFFDBCFDDFF010EDB50CF6E5D
:1025F000DF50CE6EE552E552E552E5CFDAFFE7CF88
:04260000D9FF1200EC
:0C260400FF0EE3501D6EEF0E01D0F30E30
:10261000E76EE72E09EF13F00C0E1C6EE76AE72E4B
:102620000FEF13F01C2E0EEF13F01D2E07EF13F01B
:02263000120096
:0E263200D9CFE6FFDACFE6FFE1CFD9FFE2CF46
:10264000DAFFACAC04D0AC90000182B3AC80FD0EDC
:10265000DB50AD6EE552E5CFDAFFE7CFD9FF1200D0
:10266000056A046A100EE76ED890083609360436FB
:1026700005360D50045C0E50055805E30D50045E00
:0C2680000E50055A082AE72EF0D7120071
:04268C00FF0EE3500A
:102690001D6E480E01D04C0EE76EE72EFED7E76A9E
:0C26A000E72EFED71D2EF7D70000120019
:0426AC0013EE00F039
:1026B00023EE00F0F86A019CF6EC11F08BEC13F0BD
:0826C00082EC0DF0FBD71200C3
:0826C800FF0EE3501D6E1B0E16
:1026D00000D001D0200EE76EE72EFED71D2EFAD7D0
:0426E00000D0120014
:0C26E400FF0EE350E84E1200000000D092
:0A26F00000D000D0E82EFAD7120047
:0626FA0000EE00F00F0EDF
:08270000EE6AEA62FDD7120047
:08270800C250020B01E0010EBA
:022710001200B5
:04271200C28212006D
:022716001200AF
:082718000100050000000000B3
:0E2720000000000000003F001F00000100014B
:020000040030CA
:0100000024DB
:010001008E70
:0100020031CC
:010003001EDE
:010005008179
:01000600A158
:010008000FE8
:01000900C036
:01000A000FE6
:01000B008074
:01000C000FE4
:01000D0040B2
:00000001FF
