:020000040000FA
:060000001FEF13F01200D7
:060800001FEF13F01200CF
:0608080024EF0DF01200C8
:020818001200CC
:06082A000100AA260000F7
:08083000DA01000015000000D0
:08083800060E0001735D05E3EB
:100840006D50020B01E0120001D81200D9CFE6FF73
:10085000DACFE6FFE1CFD9FFE2CFDAFFE652400E72
:10086000E66E020EE66E010EE66E99EC10F0E552B1
:10087000E552E552000958E00101006B0101025107
:10088000FF0A3FE05F0A15E0A00A0AE0440A01E01F
:1008900037D00101050E036F0101020E006F33D046
:1008A0000101046B0101010E056F0101040E006FCF
:1008B0002AD00101035104E003C1E6FFFCDAE5524E
:1008C000010E01014A6F4B6B0101150E4A5D000ECE
:1008D0004B5912E2B4DAE66E020E01014A25E96EC6
:1008E000010E01014B21EA6EE552E750EF6E010166
:1008F0004A2B000E4B23E8D70101150E006F03D0E1
:1009000002D0FF0000D0010100510EE004010CBF35
:100910000BD000C1E6FF020EE66E010EE66E6FEC34
:1009200010F0E552E552E552E552E552E5CFDAFF27
:10093000E7CFD9FF120066EC09F0ACA2FED7FD0E9E
:10094000DB50AD6E74EF09F097EC0FF06FBE02D084
:10095000B9EC0FF0120066EC09F001016F6B546BFB
:10096000556B400E545D000E555907E27A0E542522
:10097000E96E010E05EC0AF0F4D7546B556B200EAE
:10098000545D000E555907E2BA0E5425E96E010E6A
:1009900005EC0AF0F4D7546B556B020E545D040E4F
:1009A000555904E20A0E7AEC09F0F7D7910EAB6EB6
:1009B000AB8E949C948E829E828C240EAC6E186AB0
:1009C0006C0E196EDC0E1A6E020E1B6E18C006F04D
:1009D00019C007F01AC008F0096EFA0EDBCF0BF051
:1009E000FB0EDBCF0CF0FC0EDBCF0DF0FD0EDBCFF2
:1009F0000EF0CCEC09F0040E0B6E0C6A0D6A0E6A58
:100A0000CCEC09F01406000E155A165A175A14C0E9
:100A100074F115C075F114C0AFFF15C014F0155076
:100A2000B06E9D9A9E9A480EB86E83948392AECF14
:100A300069F174EF09F00101410E6B6F6C6F546B3B
:100A4000556BE2EC09F004E20B0E7AEC09F0F9D7F1
:100A5000D00EE66E240EE66E000E14EC0AF00101D4
:100A6000546B556BE2EC09F004E20B0E7AEC09F0E2
:100A7000F9D7A4EC09F0CA0EE66E240EE66E000E5D
:100A800014EC0AF0A4EC09F04B0E01016C5D02E0DD
:100A9000000E01D0010E146E4F0E6B5D02E0000ED1
:100AA00001D0010E141401E0000C010C0101546B83
:100AB000556BE2EC09F004E20D0E7AEC09F0F9D77F
:100AC00023EC0AF0BF0EE66E240EE66E000E62EC1A
:100AD00009F0B90EE66E240EE66E000E0CEF0AF079
:100AE00041EC0AF0E652660EF36E020EF3CFDBFF26
:100AF0000101566B576B300E565D750E575917E254
:100B0000020EE66E2DEC13F0E5527DD800090AE0E6
:100B10000101300E566F750E576F330EF36E020ED5
:100B2000F3CFDBFF0101562B000E5723E4D7020E53
:100B3000DB5033080DE1DF6AFB0EDB50DF5C08E2BF
:100B400062D80009FDE0F3DB01E3DB2ADF2AF4D7FA
:100B5000E552E552E552C8D3B40EE66E240EE66EB9
:100B6000000E14EF0AF0B2DB46D8F3CF14F0F4CF46
:100B700015F0F350F410F8E102EC0AF005E002EC95
:100B80000AF0E66E2DD8E552FC0EDBCFE9FFDB2A3A
:100B9000FD0EDBCFEAFF01E3DB2AEF50E5E1828CBB
:100BA000A3D394DBACA2FED7D3DB05E0D1DBE66EAA
:100BB000E2EC12F0E552D950FB0FE96EFF0EDA209D
:100BC000EA6EEFCFF6FFEE2AEFCFF7FF000EEE2230
:100BD000EFCFF8FFEE220800F550E4E1828C84D3D9
:100BE0002FEC0AF0AD6E80D32FEC0AF0AD6EACA204
:100BF000FED7828C79D3ACB203D0010EF36E01D054
:100C0000F36AF46A12009EBA010C000C41EC0AF07F
:100C1000DF6AFB0EDB50DF5C08E2F5DF0009FDE078
:100C200086DB01E3DB2ADF2AF4D7E552E5525CD309
:100C30004DDBE652AE50DF6EDF50E55255D32FEC60
:100C40000AF0080A1CE00F0A18E0010A14E0030A7F
:100C500010E0010A0CE0070A08E0010A04E0030AB8
:100C600011E1C26A10D0040E0BD0080E09D00C0E90
:100C700007D0100E05D0140E03D0180E01D01C0E94
:100C8000C26E01D0C26AC28052EC13F04DEC13F078
:100C90000009FCE106D8F3CF5AF1F4CF5BF1C29022
:100CA00023D3EFDBC350DF6E010EC4CFDBFFDECFFB
:100CB00014F0DDCF15F014C0F3FF15C0F4FFE552BA
:100CC000E55212D303DBFC0EDBCF5EF1FD0EDBCF72
:100CD0005FF10101606B616B5FAF02D060696169B8
:100CE000E40E0B6E0C0E0C6E62DB0EEC12F002C00A
:100CF0005EF103C05FF104C060F105C061F10A0E4E
:100D00000101D890613360335F335E33E806F9E167
:100D10000A0E0B6E0C6A4BDB6AEC12F006C05EF139
:100D200007C05FF108C060F109C061F106C05CF165
:100D300007C05DF106C058F107C059F1640E0D6E91
:100D40000E6A06C008F007C009F041DB6B6F2E0E7B
:100D50006C6F640E46DB04C05CF105C05DF104C03D
:100D600058F105C059F10A0E0D6E0E6A04C008F064
:100D700005C009F02CDB6D6F5CC158F15DC159F104
:100D80000A0E2FDB04C058F105C059F1300E0101E5
:100D900004246E6FA9D29ADA01017651771102E02C
:100DA000000E01D0010E176E0101E751E31902E1B7
:100DB000E851E41902E0000E01D0010ED5DA02E19B
:100DC0007751151802E0000E01D0010E0101EB1160
:100DD000161032E17A0EE325E96E010EE421EA6E87
:100DE000FD0EDBCFEFFFE751E35DE851E45903E38C
:100DF000E36BE46B03D0E32B000EE423EC6B010107
:100E00007651771102E0000E01D0010E176E01013C
:100E1000E751E31902E1E851E41902E0000E01D0C4
:100E2000010EA2DA02E17751151802E0000E01D09E
:100E3000010E161003E00101010EEB6F55D2010106
:100E4000E3510101761904E10101E451010177192F
:100E500002E0000E01D0010E0101EC1103E00101DE
:100E60004F6B23D07A0E01017625E96E010E7721B2
:100E7000EA6EEFCF4FF10101E7510101765D01010B
:100E8000E8510101775903E3766B776B03D0762B3A
:100E9000000E77230101EB6BE3510101761908E1A4
:100EA0000101E4510101771903E10101010EEC6F29
:100EB00001014F5112000ADA01017851791102E063
:100EC000000E01D0010E176E0101E951E51902E192
:100ED000EA51E61902E0000E01D0010E51DA02E1FA
:100EE0007951151802E0000E01D0010E0101ED113B
:100EF000161032E1BA0EE525E96E010EE621EA6E22
:100F0000FD0EDBCFEFFFE951E55DEA51E65903E362
:100F1000E56BE66B03D0E52B000EE623EE6B0101DB
:100F20007851791102E0000E01D0010E176E010117
:100F3000E951E51902E1EA51E61902E0000E01D09B
:100F4000010E1EDA02E17951151802E0000E01D0FF
:100F5000010E161003E00101010EED6FC5D1010174
:100F6000E5510101781904E10101E6510101791906
:100F700002E0000E01D0010E0101EE1103E00101BB
:100F80004F6B23D0BA0E01017825E96E010E79214D
:100F9000EA6EEFCF4FF10101E9510101785D0101E6
:100FA000EA510101795903E3786B796B03D0782B0F
:100FB000000E79230101ED6BE5510101781908E17B
:100FC0000101E6510101791903E10101010EEE6F02
:100FD00001014F51120043DA02E1300E04D0FD0E40
:100FE000DB0401E1310E80D19EAA09D0AECF69F1B8
:100FF0000101EB5104E169C1E6FFCDDEE5529EA09F
:1010000020D0F7D94BD80101EE511AE10101726BE2
:10101000736B050E725D000E735912E2A0DF0101C1
:101020006A6F6A5105E06AC1E6FFDEDDE55203D072
:10103000050E726F736B0101722B000E7323E9D7DB
:101040009E9012000101656B666B636B626B646B53
:10105000686BBD6ABA6A9D80D09EF28CF28EFD0EDE
:10106000E66E8EEC12F0E552F9EF09F0BD6ABA6A4D
:10107000C26A0F0EC16EFD0EC06E070EB46E100E6A
:10108000926E9368BF0E946EB90E956E966A896AD9
:101090008A6A8B6A040E8C6E8D6A1200030E01013F
:1010A000625D3DE3626B3ED8090E0101635D34E38E
:1010B000636B39D83B0E0101665D2BE3666BA7D8E5
:1010C0003B0E0101655D22E3656BA2D8170E01019D
:1010D000645D19E39ED801016851146E156AD890B9
:1010E000155004E6FE0E145C000E155809E392D864
:1010F0000101686B656B666B626B636B646B1200FE
:10110000682B0AEF09F0642B09EF09F0652B08EF53
:1011100009F0662B07EF09F0632B93EF08F0622BC1
:1011200092EF08F012000101EC516AE188DE010142
:101130006B6F0101EC5164E182DE01016C6F010112
:10114000EC515EE17CDE01016D6F0101EC5158E173
:1011500076DE01016E6F0101EC5152E170DE01019A
:101160006F6F0101EC514CE16ADE0101706F01010A
:10117000010EE01943E1E15141E101016B0502E09B
:10118000000E01D0010E146E6B5102E0000E01D072
:10119000010E141035E00101010EDA1901E1DB51F5
:1011A00002E0000E01D0010E146E01016B0502E099
:1011B000000E01D0010E141402E0848201D084924A
:1011C000A2D86CC144F16CC1E6FFE66E88D8020E6D
:1011D000436F6DC144F16DC1E6FFE66E29D96EC162
:1011E00044F16EC1E6FFE66E7AD8050E436F6FC11B
:1011F00044F16FC1E6FFE66E2DD902D0DE6BDF6BE6
:10120000010E0101E06FE16B800EE26F120012002F
:101210001200120012000101546B556BD3D803E287
:101220001E0E68D8FBD70FD9AC0EE66E240EE66E04
:10123000000E48D8A40EE66E240EE66E000E42D8CC
:101240009C0EE66E240EE66E000E3CD8930EE66E03
:10125000240EE66E000EE0D00101546B556BB2D83F
:1012600003E21E0E47D8FBD7EED88C0EE66E240E96
:10127000E66E000ED1D0090EC16E928092829284E9
:101280009286928A9680969296948090809280948C
:101290008096809A849084928494010134D8400E80
:1012A000F8D8020E436F060E446FE66E43C1E6FFA8
:1012B000BFD8C50EEED8050E436F446FE66EE66EDE
:1012C0002AEF0AF0B1D8CFD8A1DCDFD0D9CFE6FF22
:1012D000DACFE6FFE1CFD9FFE2CFDAFF1200BAD8CA
:1012E0000101C20E426F1200E552E5CFDAFFE7CFEF
:1012F000D9FF1200E66E0FEC13F0E5520101542BFA
:10130000000E55231200C20E426F436B446B44C162
:10131000E6FF43C1E6FFE66E4BEC0BF0E552E5520B
:10132000E5520101C20E426F010E436F120080DCD4
:10133000E76E010EE7CFDBFF9DD8010EDBCFEFFF9D
:10134000FC0EDB2AFD0E12008ED870EC05F09DD04D
:10135000FB0EDBCFF6FFFC0EDBCFF7FFFD0EDBCF86
:10136000F8FF0800F55012001714166E010E156AEA
:10137000E325146EE4511522010176511418120070
:101380001714166E010E156AE525146EE651152226
:101390000101785114181200E3EC10F006C014F0AB
:1013A00007C015F008C016F009C017F012000D6A4A
:1013B0000E6A5EC106F05FC107F060C108F061C14E
:1013C00009F01200240E545D040E55591200F9EC78
:1013D00012F008C058F109C059F1300E010108247B
:1013E00012000D6E0E6A5CC108F05DC109F0F9EFE4
:1013F00012F0C40EE66E6D0EE66EAFEC12F0E55222
:10140000E552120037D8EF5012005521EA6EEF6A0C
:10141000542B000E5523120055DFCA0EE66E240E23
:10142000E66E000E62EF09F0E66ED1EC05F02DD00D
:1014300056DF030E436F446B44C1E6FFE66E4FDF99
:10144000040E436F1200D00EE66E240EE66E000E00
:1014500062EF09F042C1E6FF4BEC0BF016D036DF2D
:10146000FD0EDB501200030EE66E6B0EE66E010EF3
:10147000E66E1200FC0EDBCFE9FFFD0EDBCFEAFFCC
:10148000120024DFE652E6521200E552E552E55220
:0E1490001200446FE66E43C1E6FF6FEF09F0F5
:02149E00C66A1C
:1014A000800EC76E770EC86E280EC66EC56A938012
:1014B0009382120043D9C750040B01E0010E34D9C6
:1014C000FAE1C580C5B0FED7A1B64AD0FD0E26D937
:1014D00043E1C750040B01E0010E26D9FAE1C5BC77
:1014E0003BD0FC0E1BD938E1C750040B01E0010EC4
:1014F0001BD9FAE1C5BC30D0FB0E10D92DE1C75085
:10150000040B01E0010E10D9FAE1C5BC25D0C5825B
:10151000C5B2FED7A1B620D0FD0EDB28E66E7CD882
:10152000E552000919E1C750040B01E0010EFCD897
:10153000FAE1C5BC11D0C58694D80101FC6FE8045E
:1015400002E1010E0BD0C58AC588C5B8FED7C58497
:10155000C5B4FED7A1A60BD0010E0101FD6FFE6B35
:10156000C66A280EC66E010EF36EF46A06D0FDD868
:10157000C950156AF36E15C0F4FFE7D0DFD8C75025
:10158000040B01E0010ED0D8FAE1C580C5B0FED74A
:10159000A1A602D0F9D83BD0FD0EC0D821E1C7509A
:1015A000040B01E0010EC0D8FAE1C5BC1CD0FC0E52
:1015B000B5D816E1C750040B01E0010EB5D8FAE129
:1015C000C5BC11D0FB0EAAD80BE1C750040B01E03B
:1015D000010EAAD8FAE1C5BC06D0FA0E9FD806E0E3
:1015E000A8D8FD0E18D0A5D8FE0E15D0C750040BF4
:1015F00001E0010E99D8FAE1C584C5B4FED7050E05
:10160000E66ECBEC12F0E552A1A603D092D8FF0E05
:1016100002D0ABD8000E99D0AED8FD0EDB50C96E0B
:10162000C6AE02D0FF0E1CD00101FA6BFB6BD89046
:10163000FB5104E6F40EFA5D010EFB5910E2F30EC5
:10164000FA1907E1010EFB1904E1010EFD6FFE6BB3
:1016500007D0C7B002D0000E03D07DD8E8D7000E67
:1016600074D00101FA6BFB6BD890FB5104E6F40EC9
:10167000FA5D010EFB590EE2F30EFA1907E1010EB5
:10168000FB1904E1010EFD6FFE6B010CC5A6000CF9
:1016900062D8EAD7000C52D8C750040B01E0010E03
:1016A00043D8FAE1C580C5B0FED7A1A602D06CD858
:1016B00030D0FD0E33D816E1C750040B01E0010E07
:1016C00033D8FAE1C5BC11D0FC0E28D80BE1C750C5
:1016D000040B01E0010E28D8FAE1C5BC06D0FB0ED0
:1016E0001DD806E026D8FD0E18D023D8FE0E15D042
:1016F000C750040B01E0010E17D8FAE1C584C5B448
:10170000FED7050EE66ECBEC12F0E552A1A603D093
:1017100010D8FF0E02D029D8000E17D0DBCFE6FF7D
:101720007BDFE55200091200146E1F0EC514141061
:1017300012002AD8C66A280EC66E12001CD8F29C67
:10174000F29E0101FD6BFE6B1200E552E5CFDAFF60
:10175000E7CFD9FF1200010EE66E3BEC13F0E55225
:101760000101FA2B000EFB231200F28CF28EC66AE6
:10177000280EC66E1200D9CFE6FFDACFE6FFE1CF22
:10178000D9FFE2CFDAFF1200010E0101FD6FFE6BFF
:02179000120045
:0E17920004011851600BE842E842E842E842C8
:1017A000E842000901E012001951070A40E00B0A63
:1017B0003EE0070A33E0010A23E00B0A1FE0020AB9
:1017C0001DE0030A19E0080A10E0010A0CE00F0A04
:1017D00008E0030A01E012002FD90001040E736F24
:1017E000120018EF0CF04FEF0CF026D90101750E26
:1017F000F16F000EF26F0CD06AEF0CF09CEF0CF062
:101800001FD90101F16FF26B760EF127000EF22362
:10181000000174930101010EF76F120011D9EA6AF9
:10182000760FE96E000EEA221AC4EFFF12001200D2
:10183000800E0401185D32E11B51030A21E0010A08
:101840000CE0030A29E1F8D80101C00EF16F220E65
:10185000F26F000EF36F120E1CD0EED86E0E146EE7
:10186000230E156E000E99D8020EF626000EF722F2
:10187000F8220900F5CFF7F10A00F5CFF8F10CD006
:10188000DBD8740E146E230E156E000E86D8080079
:10189000F5500101F76FF86B000174831200CCD88A
:1018A0000F0EE66E710EE66E0F0EBAD8010EE66EE2
:1018B000760EE66E000EB4D81AC475F004011A5103
:1018C00004E10001050E736F12000001060E736F34
:1018D0005AEF10F00401206B216B040118511F0B0B
:1018E000020A0FE0030A0BE0010A18E1A5D804017F
:1018F0002081000174A112D0040120830FD09CD854
:101900000DD079D801E0010E82D8F4C1E9FFEA6E6A
:10191000EF50040B03E00401010E206F0101F005FC
:101920000AE10101200EF16F040EF26F00017493C1
:101930000101020EF76F120004011A050EE11851A1
:101940001F0B00090AE178D8030E0401195D03E1B9
:101950000001748102D00001749104011A511CE14C
:1019600018511F0B020818E11C510F0B000914E05D
:1019700042D801E0010E4BD8030E0401195D04E1C9
:10198000840E55D8EF6E12001CAF03D050D8EF6A0A
:101990001200880E4CD8EF6E1200166E1AC417F0A3
:1019A000186A196A030E0C6E0D6A0E6A17C007F0EA
:1019B00018C008F019C009F017EC11F014500424F5
:1019C000F36E15500520F46E16500620F86EF4CF15
:1019D000F7FFF3CFF6FF0900F5CFF1F10900F5CFDE
:1019E000F2F10800F5CFF3F1F1C1F6FFF2C1F7FF14
:1019F000F3C1F8FF120024D80F0B080DF350156A3D
:101A0000000F146E040E15221C51800B1200040DE1
:101A1000F35001011424F46F000E1520F56F12002D
:101A2000E66E3FEC10F0E552E552E5521200F4C1CB
:101A3000E9FFF5C1EAFF12000101010EF06F12008B
:081A4000FBDF04011C51120040
:081A4800E9CFE4FFEACFE4FF5F
:101A5000F6CFE4FFF7CFE4FFF8CFE4FFF5CFE4FFE4
:101A6000F3CFE4FFF4CFE4FFFACFE4FFFBCFE4FFD2
:101A700000EE00F0140EE80403E3EECFE4FFFBD722
:101A800000EE14F0080EE80403E3EECFE4FFFBD70A
:101A9000E652F4EC07F0E55200EE1BF0080EE80405
:101AA00003E3E5CFEDFFFBD700EE13F0140EE804DF
:101AB00003E3E5CFEDFFFBD7E5CFFBFFE5CFFAFF73
:101AC000E5CFF4FFE5CFF3FFE5CFF5FFE5CFF8FF76
:101AD000E5CFF7FFE5CFF6FFE5CFEAFFE5CFE9FF7A
:101AE0001100A2D800016E6B6F6BE1D803E2010E0A
:101AF000B5D8FBD74FEC0AF036EC08F03BEC09F018
:101B00000001706B716B0A0E705D000E71590EE270
:101B10006E6B6F6B0C0E6E5D040E6F5903E20A0E56
:101B20009DD8F8D7702B000E7123EDD7A7D80001F0
:101B30006E6B6F6BBCD803E20A0E90D8FBD71BEC20
:101B400005F000094CE0800EE66E250EE66EE66AB2
:101B5000B3D800016E6B6F6B99D803E2010E7ED88B
:101B6000FBD71BEC05F0000919E095D83C0E705D21
:101B7000000E71590AE26E6B6F6B88D802E274D85E
:101B8000FCD7702B000E7123F1D70A0E9DD80001EF
:101B90006E6B6F6B7BD8F9E267D8FCD700016E6B78
:101BA0006F6B74D803E2140E59D8FBD756EC05F0CE
:101BB00065D80001706B716B1E0E705D000E71595F
:101BC00016E26E6B6F6BB80E6E5D0B0E6F5903E213
:101BD000010E44D8F8D7702B000E7123EDD7000109
:101BE0006E6B6F6B64D803E20A0E38D8FBD70BEC30
:101BF00009F0839450D8280E705D000E71590AE2E6
:101C00006E6B6F6B43D802E22FD8FCD7702B000E9F
:101C10007123F1D722EC08F09D8A00016E6B6F6B87
:101C200035D8FBE221D8FCD7100E926EC26A0F0E97
:101C3000C16E3C0EC06E070EB46E9368BF0E946EFC
:101C4000B90E956E040E8C6E966A8D6A120097EC32
:101C50000FF06FBE02D0B9EC0FF0120035D80001C2
:101C60006E2B000E6F231200010E2ED8F0DF1CEC3D
:101C700004F000016E2B000E6F231200400EE66E82
:101C80000D0EE66E030EE66E5CEF0EF0240E6E5D3A
:101C9000040E6F591200140E6F6E0001736B000179
:101CA000746B0001756B0001706B716B1200020E9A
:101CB0006E5D040E6F591200E66AABEC04F0E5525B
:101CC000E552E552E5521200E66E0FEC13F0E552D4
:021CD000120000
:0E1CD2006C5002E0000E01D0010E00090BE084
:101CE000040100513C0BE842E8420D0802E184EF98
:101CF0000EF08EEF0EF06C5002E0000E01D0010EDF
:101D0000040901E01AD81200E6D80101EF6BF06B6C
:101D1000F76BF86BC9EC0BF09DD8E7D0020E010110
:101D2000EF5D09E16BD8040100BD02D0C80E01D0FF
:101D3000880E006F120063EF0FF0040E0001735D58
:101D400009E11AC46EFF6E50000802E2050E01D0D0
:101D5000030E736F0101EF0509E10AD8040104BD08
:101D600002D0C80E01D0880E046F120063EF0FF08E
:101D7000B2D8E6520101080EF75D000EF85905E2EF
:101D8000F7C1DEFFF8C1DDFF03D0080EDE6EDD6AAD
:101D9000040104930491010EDB500413DFCF05F41A
:101DA000000EDB500101F75F010EDB50F85B200EE7
:101DB000F46F040EF56F000174A311D0B1D81CE0CC
:101DC000F1C1F6FFF2C1F7FFF3C1F8FF0800F550CB
:101DD0009BD8F323DF06010EF1E2DB06EFD7A0D894
:101DE0000BE0F1C1E9FFF2C1EAFFEF508DD8DF0649
:101DF000010EF5E2DB06F3D7E55277D06CD8E65258
:101E0000030E04010015E76E010EE7CFDBFF01C4EE
:101E1000DFFFDE500101F727DD50F823200EF16FC0
:101E2000040EF26F7DD814E0F1C1E9FFF2C1EAFFC0
:101E3000EF50F4C1E9FFF5C1EAFFEF6EF42B000E9D
:101E4000F523F12BF223DF06010EECE2DB06EAD7E5
:101E5000E5524BD00101F05105E14ED8840E006FE0
:101E600004011DD0040118AF1CD00101F751040179
:101E70001E5D0101F85104011F5904E21EC4F7F16F
:101E80001FC4F8F175DF0101010EEF6F35D8800E28
:101E9000006F0401200E066F040E076FC80E046F5A
:101EA00010D00101020EEF6F0401056BC80E046F24
:101EB0000401080E016F200E026F040E036FC80E9E
:101EC000006F6D9812000101EF6B16D8880E006F3D
:101ED0000401046B1200D9CFE6FFDACFE6FFE1CFB1
:101EE000D9FFE2CFDAFFE6521200E552E552E5CF24
:101EF000DAFFE7CFD9FF12000401080E016F180EB8
:101F0000026F040E036F1200F4C1E9FFF5C1EAFF8E
:101F1000EF6E0101F42B000EF523F12BF2231200DA
:0E1F2000D9CFE9FFDACFEAFFEE50ED10120044
:021F2E0080A889
:101F300004D06DB604D00FD802D06DB613D800010E
:101F4000730508E16DBA06D0686A696A69806988B4
:101F5000020E736F12006D6A696A6D860001010ED0
:101F6000736F12006D6A696A0001736B1200B2EF41
:101F70000FF00001735101E112006850040B04E0FE
:101F80006950040B01E038D86DB212006850010BA3
:101F900004E06950010B01E050D86850100B04E0D8
:101FA0006950100B01E024D86850400B04E06950E0
:101FB000400B01E037D86850200B04E06950200B3B
:101FC00001E032D86850020B04E06950020B01E0D6
:101FD00032D8030E0001735D01E212006850080B55
:101FE00006E06950080B03E069EC0EF068961200F9
:101FF000698468986D8212006D92699468941200E9
:10200000000174A10ED0F8DF6D840001080E776F17
:10201000070E786F7707000E785B77517811FAE139
:102020006D941200689C120070A003D063EC0FF056
:102030007090689A1200689212006A6A686A9F0E2D
:102040006B6E7B0E696E6E6A0F0EE66E710EE66E3B
:102050000F0EE66E14D8E552E552E552160E706E7C
:1020600068A602D06896FCD76D9863EC0FF000016B
:1020700074910001756B0001030E736F1200D9CFCC
:10208000E6FFDACFE6FFE1CFD9FFE2CFDAFFFC0EC1
:10209000DBCFE9FFFD0EDBCFEAFFFB0EDB5004E0F8
:1020A000EE6AFB0EDB06F9D7E552E5CFDAFFE7CFA4
:0420B000D9FF120042
:0C20B4000101FF6B1E0E716E0401400E56
:1020C000096F280E0A6F040E0B6F880E086F04014B
:1020D000680E0E6F040E0F6F400E0C6F120064D866
:1020E000E652FB0EDB50400805E2400EF36EFB0E9D
:1020F000F3CFDBFFDF6AFB0EDB50DF5C0FE2DF506C
:1021000047D8EF50E66EDF50EA6A680FE96E040EBA
:10211000EA22E552E750EF6EDF2AEDD7FB0EDBCF68
:102120000DF4400E04010C170C7D880E0C13E552C3
:1021300044D03AD80101FF6B040108BF26D0FB0E42
:10214000DBCF14F00951D880145403E2FB0E09C40C
:10215000DBFF0101FF6BFB0EDB50FF5D0FE2FF5168
:10216000EA6A280FE96E040EEA22EF50E66EFF518C
:102170000FD8E552E750EF6EFF2BEDD70401400E6C
:10218000096F0817087D880E08130101FF5115D04B
:10219000E76EFC0EDBCFE9FFFD0EDBCFEAFFE75079
:1021A000E926000EEA221200D9CFE6FFDACFE6FFD9
:1021B000E1CFD9FFE2CFDAFF1200E552E5CFDAFF37
:0621C000E7CFD9FF120079
:0A21C600006AE86A0EAEF0EF10F0B8
:1021D0000B6C0C1E0D1E0E1E0C220D220E22001E5C
:1021E00009AEFBEF10F0066C071E081E091E072241
:1021F00008220922001E6AEC12F009BE12EF11F04B
:1022000000AE000C066C071E081E091EE86A0722B5
:1022100008220922026C031E041E051E032204224A
:102220000522000C00BE02EF11F00188FF0C09C06E
:1022300013F008C012F007C011F007500C02F4CFE1
:1022400005F0F3CF04F008500D02F4CF07F0F3CF00
:1022500006F00C02F3500526F4500622E86A072225
:1022600011500D02F3500526F4500622E86A0722A9
:1022700009500C02F3500626F450072209500D02B3
:10228000086AE86A0822F3500726F4500822115021
:102290000E02F3500626F4500722096AE86A082263
:1022A000092212500E02F3500726F4500822E86A61
:1022B000092213500E02F3500826F4500922000C94
:1022C0001201000200000008D804AFFE0000010265
:1022D000000109022000010100803209040000020F
:1022E00000000000070501034000200705810340AE
:1022F0000020040309043403540048004500200072
:10230000530049004C00490043004F004E0020009C
:1023100048004F00520049005A004F004E00000094
:10232000000000000000000000004403740065008D
:102330006300680046005800000000000000000034
:10234000000000000000000000000000000000008D
:10235000000000000000000000000000000000007D
:102360000000000000000000000000000000D22279
:0D23700000D22200F22200F622002A2300F3
:02237E002A0E25
:10238000F66E080EF76E000EF86E00010900F550AB
:10239000656F0900F550666F03E1656701D03DD0B8
:1023A0000900F550606F0900F550616F0900F550A4
:1023B000626F09000900F550E96E0900F550EA6EF8
:1023C000090009000900F550636F0900F550646FBA
:1023D00009000900F6CF67F0F7CF68F0F8CF69F091
:1023E00060C0F6FF61C0F7FF62C0F8FF00016353F1
:1023F00002E1645307E00900F550EE6E6307F8E26E
:102400006407F9D767C0F6FF68C0F7FF69C0F8FF37
:0C24100000016507000E665BBFD71200DC
:04241C0006500B0259
:10242000F3CF02F0F4CF03F00C02F3500326000EBA
:10243000F420046E06500D02F3500426000EF42022
:10244000056E06500E02F350052607500B02F3509E
:102450000326F4500422000E052207500C02F3500C
:102460000426F450052207500D02F35005260850AB
:102470000B02F3500426F450052208500C02F350CE
:0C248000052609500B02F350052612003F
:04248C004154534D17
:10249000300D0041544E4947554E0D0041544E4AAF
:1024A00046460D004154494433330D0041545343D3
:1024B00031320D00626C616800415457520D004189
:1024C00054424433306434300D004154434E0D00C7
:0424D0002B2B2B0087
:0C24D400056A046A036A026A200EE76EC3
:1024E000D8900636073608360936023603360436E3
:1024F00005360B50025C0C5003580D5004580E501A
:10250000055809E30B50025E0C50035A0D50045A53
:0C2510000E50055A062AE72EE4D71200F0
:04251C00D9CFE6FF2E
:10252000DACFE6FFE1CFD9FFE2CFDAFFFD0EDB50D5
:102530007E0BCD6EFD0EDBAC02D0CD8E01D0CD9EDC
:10254000CF6ACE6A9E90DBAE02D09D8001D09D9076
:0E255000CD80E552E5CFDAFFE7CFD9FF1200CC
:02255E00D9CFD3
:10256000E6FFDACFE6FFE1CFD9FFE2CFDAFFE652AE
:10257000E652FC0EDBCFDEFFDBCFDDFF010EDB50D2
:10258000CF6EDF50CE6EE552E552E552E5CFDAFF71
:06259000E7CFD9FF1200A5
:0A259600FF0EE3501D6EEF0E01D0A2
:1025A000F30EE76EE72ED2EF12F00C0E1C6EE76A08
:1025B000E72ED8EF12F01C2ED7EF12F01D2ED0EF21
:0425C00012F0120003
:0C25C400D9CFE6FFDACFE6FFE1CFD9FF68
:1025D000E2CFDAFFACAC04D0AC90000179B3AC80B0
:1025E000FD0EDB50AD6EE552E5CFDAFFE7CFD9FF48
:0225F0001200D7
:0E25F200056A046A100EE76ED89008360936A6
:10260000043605360D50045C0E50055805E30D5098
:0E261000045E0E50055A082AE72EF0D712007D
:02261E00FF0EAD
:10262000E3501D6E480E01D04C0EE76EE72EFED72C
:0E263000E76AE72EFED71D2EF7D70000120036
:02263E0013EE99
:1026400000F023EE00F0F86A019CBFEC11F054ECAE
:0A26500013F071EC0DF0FBD712003F
:06265A00FF0EE3501D6EAF
:102660001B0E00D001D0200EE76EE72EFED71D2EE8
:06267000FAD700D01200B1
:0A267600FF0EE350E84E12000000D2
:0C26800000D000D000D0E82EFAD71200E5
:04268C0000EE00F06C
:0A2690000F0EEE6AEA62FDD7120099
:06269A00C250020B01E03A
:0426A000010E120015
:0426A400C2821200DC
:0226A80012001E
:0626AA0001000000000029
:0F26B000010080000000003F001F00000100013A
:020000040030CA
:0100000024DB
:010001008E70
:0100020031CC
:010003001EDE
:010005008179
:01000600A158
:010008000FE8
:01000900C036
:01000A000FE6
:01000B008074
:01000C000FE4
:01000D0040B2
:00000001FF
