:020000040000FA
:06000000A8EF12F012004F
:06080000A8EF12F0120047
:0608080090EF0CF012005D
:020818001200CC
:06082A000100BC250000E6
:08083000D90100000C000000DA
:08083800060E0001695D05E3F5
:100840006D50020B01E0120001D81200D9CFE6FF73
:10085000DACFE6FFE1CFD9FFE2CFDAFFE652400E72
:10086000E66E020EE66E010EE66E02EC10F0E55248
:10087000E552E552000958E00101006B0101025107
:10088000FF0A3FE05F0A15E0A00A0AE0440A01E01F
:1008900037D00101050E036F0101020E006F33D046
:1008A0000101046B0101010E056F0101040E006FCF
:1008B0002AD00101035104E003C1E6FFEFDAE5525B
:1008C000010E01014A6F4B6B0101150E4A5D000ECE
:1008D0004B5912E2A7DAE66E020E01014A25E96ED3
:1008E000010E01014B21EA6EE552E750EF6E010166
:1008F0004A2B000E4B23E8D70101150E006F03D0E1
:1009000002D0FF0000D0010100510EE004010CBF35
:100910000BD000C1E6FF020EE66E010EE66ED8ECCB
:100920000FF0E552E552E552E552E552E5CFDAFF28
:10093000E7CFD9FF1200FCEC08F0ACA2FED7FD0E09
:10094000DB50AD6E05EF09F000EC0FF06FBE02D08A
:1009500022EC0FF01200FCEC08F001016F6B546BFD
:10096000556B400E545D000E555907E2790E542523
:10097000E96E010E81EC09F0F4D7546B556B200E33
:10098000545D000E555907E2B90E5425E96E010E6B
:1009900081EC09F0F4D7546B556B020E545D040ED4
:1009A000555904E20A0E0BEC09F0F7D7910EAB6E25
:1009B000AB8E949C948E829E828C240EAC6E186AB0
:1009C0006C0E196EDC0E1A6E020E1B6E18C006F04D
:1009D00019C007F01AC008F0096EFA0EDBCF0BF051
:1009E000FB0EDBCF0CF0FC0EDBCF0DF0FD0EDBCFF2
:1009F0000EF048EC09F0040E0B6E0C6A0D6A0E6ADC
:100A000048EC09F01406000E155A165A175A14C06D
:100A100073F115C074F114C0AFFF15C014F0155078
:100A2000B06E9D9A9E9A480EB86E83948392AECF14
:100A300069F1EBD30101410E6B6F6C6F546B556B19
:100A40005EEC09F003E20B0EE6DBFAD7710EE66E00
:100A5000230EE66E000E90EC09F00101546B556B0D
:100A60005EEC09F003E20B0ED6DBFAD7EADB6B0E85
:100A7000E66E230EE66E000E90EC09F0E2DB4B0E04
:100A800001016C5D02E0000E01D0010E146E4F0EEC
:100A90006B5D02E0000E01D0010E141401E0000CA9
:100AA000010C0101546B556B5EEC09F003E20D0E75
:100AB000B2DBFAD793EC09F0600EE66E230EE66E19
:100AC000000E96DB5A0EE66E230EE66E000E88EFE1
:100AD00009F0ACEC09F0E652660EF36E020EF3CFAD
:100AE000DBFF0101566B576B300E565D750E575983
:100AF00017E2020EE66EB6EC12F0E55279D8000964
:100B00000AE00101300E566F750E576F330EF36E0B
:100B1000020EF3CFDBFF0101562B000E5723E4D763
:100B2000020EDB5033080DE1DF6AFB0EDB50DF5CA9
:100B300008E25ED80009FDE077DB01E3DB2ADF2A6B
:100B4000F4D7E552E552E55260D3550EE66E230E1A
:100B5000E66E000E90EF09F04FDB42D8F3CF14F0B1
:100B6000F4CF15F0F350F410F8E1C8DB04E0C6DB75
:100B7000E66E2DD8E552FC0EDBCFE9FFDB2AFD0E39
:100B8000DBCFEAFF01E3DB2AEF50E7E1828C3DD3C4
:100B900033DBACA2FED758DB05E056DBE66E6BEC30
:100BA00012F0E552D950FB0FE96EFF0EDA20EA6E23
:100BB000EFCFF6FFEE2AEFCFF7FF000EEE22EFCFDA
:100BC000F8FFEE220800F550E4E1828C1ED3B2DB80
:100BD000AD6E1BD3AFDBAD6EACA2FED7828C15D34E
:100BE000ACB203D0010EF36E01D0F36AF46A1200C6
:100BF0009EBA010C000CB0DBDF6AFB0EDB50DF5C41
:100C000008E2F6DF0009FDE00FDB01E3DB2ADF2A63
:100C1000F4D7E552E552F9D2EFDAE652AE50DF6E84
:100C2000DF50E552F2D286DB080A1CE00F0A18E01A
:100C3000010A14E0030A10E0010A0CE0070A08E0C8
:100C4000010A04E0030A11E1C26A10D0040E0BD0BD
:100C5000080E09D00C0E07D0100E05D0140E03D0CC
:100C6000180E01D01C0EC26E01D0C26AC280DBEC2D
:100C700012F0D6EC12F00009FCE106D8F3CF5AF1DD
:100C8000F4CF5BF1C290C1D267DBC350DF6E010EBF
:100C9000C4CFDBFFDECF14F0DDCF15F014C0F3FFBF
:100CA00015C0F4FFE552E552B0D2A6DAFC0EDBCF58
:100CB0005EF1FD0EDBCF5FF10101606B616B5FAF39
:100CC00002D060696169E40E0B6E0C0E0C6EEBDAFB
:100CD000BBEC11F002C05EF103C05FF104C060F133
:100CE00005C061F10A0E0101D890613360335F33B2
:100CF0005E33E806F9E10A0E0B6E0C6AD4DAF3EC07
:100D000011F006C05EF107C05FF108C060F109C0D4
:100D100061F106C05CF107C05DF106C058F107C083
:100D200059F1640E0D6E0E6A06C008F007C009F096
:100D3000CADA6B6F2E0E6C6F640ECFDA04C05CF1F2
:100D400005C05DF104C058F105C059F10A0E0D6EE1
:100D50000E6A04C008F005C009F0B5DA6D6F5CC119
:100D600058F15DC159F10A0EB8DA04C058F105C056
:100D700059F1300E010104246E6F47D23DDA0101B2
:100D80007551761102E0000E01D0010E176E0101BF
:100D9000DD51D91902E1DE51DA1902E0000E01D06D
:100DA000010E5EDA02E17651151802E0000E01D064
:100DB000010E0101E111161032E1790ED925E96E1B
:100DC000010EDA21EA6EFD0EDBCFEFFFDD51D95DBA
:100DD000DE51DA5903E3D96BDA6B03D0D92B000E5D
:100DE000DA23E26B01017551761102E0000E01D0A9
:100DF000010E176E0101DD51D91902E1DE51DA1938
:100E000002E0000E01D0010E2BDA02E17651151836
:100E100002E0000E01D0010E161003E00101010EE8
:100E2000E16FF3D10101D9510101751904E101010B
:100E3000DA510101761902E0000E01D0010E010124
:100E4000E21103E001014F6B23D0790E01017525FA
:100E5000E96E010E7621EA6EEFCF4FF10101DD510F
:100E60000101755D0101DE510101765903E3756BE6
:100E7000766B03D0752B000E76230101E16BD951FF
:100E80000101751908E10101DA510101761903E147
:100E90000101010EE26F01014F511200ADD90101B4
:100EA0007751781102E0000E01D0010E176E01019A
:100EB000DF51DB1902E1E051DC1902E0000E01D044
:100EC000010EDAD902E17851151802E0000E01D0C6
:100ED000010E0101E311161032E1B90EDB25E96EB6
:100EE000010EDC21EA6EFD0EDBCFEFFFDF51DB5D93
:100EF000E051DC5903E3DB6BDC6B03D0DB2B000E32
:100F0000DC23E46B01017751781102E0000E01D07F
:100F1000010E176E0101DF51DB1902E1E051DC190E
:100F200002E0000E01D0010EA7D902E17851151898
:100F300002E0000E01D0010E161003E00101010EC7
:100F4000E36F63D10101DB510101771904E1010174
:100F5000DC510101781902E0000E01D0010E0101FF
:100F6000E41103E001014F6B23D0B90E0101772595
:100F7000E96E010E7821EA6EEFCF4FF10101DF51EA
:100F80000101775D0101E0510101785903E3776BBD
:100F9000786B03D0772B000E78230101E36BDB51D4
:100FA0000101771908E10101DC510101781903E120
:100FB0000101010EE46F01014F511200BBD902E1A2
:100FC000300E04D0FD0EDB0401E1310E1ED19EAACD
:100FD00009D0AECF69F10101E15104E169C1E6FF39
:100FE000CDDEE5529EA020D080D94BD80101E4513E
:100FF0001AE10101716B726B050E715D000E725981
:1010000012E2A0DF01016A6F6A5105E06AC1E6FFE2
:10101000E1DDE55203D0050E716F726B0101712B9A
:10102000000E7223E9D79E9012000101656B666B7A
:10103000636B626B646B686BBD6ABA6A9D80D09E9D
:10104000F28CF28EFD0EE66E17EC12F0E55275EFA3
:1010500009F0BD6ABA6AC26A0F0EC16EFD0EC06E9B
:10106000070EB46E100E926E9368BF0E946EB90E9A
:10107000956E966A896A8A6A8B6A040E8C6E8D6A8E
:101080001200030E0101625D3DE3626B3ED8090E62
:101090000101635D34E3636B39D83B0E0101665D8A
:1010A0002BE3666B34D83B0E0101655D22E3656B73
:1010B0002FD8170E0101645D19E32BD80101685187
:1010C000146E156AD890155004E6FE0E145C000EDE
:1010D000155809E31FD80101686B656B666B626B7D
:1010E000636B646B1200682B8AEF08F0642B89EF46
:1010F00008F0652B88EF08F0662B87EF08F0632B6C
:1011000086EF08F0622B85EF08F012001200120043
:101110001200120012000101546B556BCFD803E28C
:101120001E0E79D8FBD7FFD84D0EE66E230EE66E65
:10113000000E5ED8460EE66E230EE66E000E58D800
:101140003E0EE66E230EE66E000E52D8360EE66EAA
:10115000230EE66E000E4CD82F0EE66E230EE66EC2
:10116000000E46D8280EE66E230EE66E000E40D81E
:10117000210EE66E230EE66E000E3AD8160EE66ECF
:10118000230EE66E000E34D80F0EE66E230EE66ECA
:10119000000EE6D00101546B556B90D803E21E0E91
:1011A0003AD8FBD7C0D8020EE66E230EE66E000ECC
:1011B0001FD8F80EE66E220EE66E000E19D8EE0E5F
:1011C000E66E220EE66E000ECBD00F0EC16E929030
:1011D000929292949296929A9690969296948090E9
:1011E000809280948096809A849084928494120055
:1011F00097D8A4D800DDBBD0D9CFE6FFDACFE6FF81
:10120000E1CFD9FFE2CFDAFF1200E552E5CFDAFFF6
:10121000E7CFD9FF1200E66E98EC12F0E55201011B
:10122000542B000E55231200F7DCE76E010EE7CFBA
:10123000DBFF8BD8010EDBCFEFFFFC0EDB2AFD0EB0
:1012400012007CD846DC93D0FB0EDBCFF6FFFC0E01
:10125000DBCFF7FFFD0EDBCFF8FF0800F5501200E3
:101260001714166E010E156AD925146EDA5115225F
:1012700001017551141812001714166E010E156A2B
:10128000DB25146EDC511522010177511418120070
:101290004CEC10F006C014F007C015F008C016F0B2
:1012A00009C017F012000D6A0E6A5EC106F05FC138
:1012B00007F060C108F061C109F01200240E545D0E
:1012C000040E5559120082EC12F008C058F109C002
:1012D00059F1300E0101082412000D6E0E6A5CC136
:1012E00008F05DC109F082EF12F0C40EE66E6D0EDB
:1012F000E66E38EC12F0E552E552120026D8EF50B7
:1013000012005521EA6EEF6A542B000E552312008D
:101310006FDF6B0EE66E230EE66E000EF8EF08F040
:10132000E66E36DC24D0710EE66E230EE66E000EFD
:10133000F8EF08F061DFFD0EDB501200030EE66EE1
:101340006B0EE66E010EE66E1200FC0EDBCFE9FFBF
:10135000FD0EDBCFEAFF12004FDFE652E65212002D
:1013600047DF090EE66E230EE66E000ED1D7E5527A
:06137000E552E5521200F7
:0A137600C66A800EC76E0B0EC86E2B
:10138000280EC66EC56A93809382120043D9C75057
:10139000040B01E0010E34D9FAE1C580C5B0FED7D7
:1013A000A1B64AD0FD0E26D943E1C750040B01E097
:1013B000010E26D9FAE1C5BC3BD0FC0E1BD938E1A1
:1013C000C750040B01E0010E1BD9FAE1C5BC30D0B7
:1013D000FB0E10D92DE1C750040B01E0010E10D90E
:1013E000FAE1C5BC25D0C582C5B2FED7A1B620D0D2
:1013F000FD0EDB28E66E7CD8E552000919E1C750E6
:10140000040B01E0010EFCD8FAE1C5BC11D0C58681
:1014100094D80101FC6FE80402E1010E0BD0C58AEB
:10142000C588C5B8FED7C584C5B4FED7A1A60BD064
:10143000010E0101FD6FFE6BC66A280EC66E010E1D
:10144000F36EF46A06D0FDD8C950156AF36E15C064
:10145000F4FFE7D0DFD8C750040B01E0010ED0D86D
:10146000FAE1C580C5B0FED7A1A602D0F9D83BD01D
:10147000FD0EC0D821E1C750040B01E0010EC0D819
:10148000FAE1C5BC1CD0FC0EB5D816E1C750040B60
:1014900001E0010EB5D8FAE1C5BC11D0FB0EAAD807
:1014A0000BE1C750040B01E0010EAAD8FAE1C5BC5C
:1014B00006D0FA0E9FD806E0A8D8FD0E18D0A5D801
:1014C000FE0E15D0C750040B01E0010E99D8FAE1C9
:1014D000C584C5B4FED7050EE66E54EC12F0E55295
:1014E000A1A603D092D8FF0E02D0ABD8000E99D09F
:1014F000AED8FD0EDB50C96EC6AE02D0FF0E1CD0BA
:101500000101FA6BFB6BD890FB5104E6F40EFA5D17
:10151000010EFB5910E2F30EFA1907E1010EFB1957
:1015200004E1010EFD6FFE6B07D0C7B002D0000EC4
:1015300003D07DD8E8D7000E74D00101FA6BFB6BA5
:10154000D890FB5104E6F40EFA5D010EFB590EE251
:10155000F30EFA1907E1010EFB1904E1010EFD6F0C
:10156000FE6B010CC5A6000C62D8EAD7000C52D85D
:10157000C750040B01E0010E43D8FAE1C580C5B0A5
:10158000FED7A1A602D06CD830D0FD0E33D816E11C
:10159000C750040B01E0010E33D8FAE1C5BC11D0ED
:1015A000FC0E28D80BE1C750040B01E0010E28D82F
:1015B000FAE1C5BC06D0FB0E1DD806E026D8FD0E0C
:1015C00018D023D8FE0E15D0C750040B01E0010E31
:1015D00017D8FAE1C584C5B4FED7050EE66E54EC03
:1015E00012F0E552A1A603D010D8FF0E02D029D8E0
:1015F000000E17D0DBCFE6FF7BDFE55200091200BB
:10160000146E1F0EC514141012002AD8C66A280EB4
:10161000C66E12001CD8F29CF29E0101FD6BFE6B9F
:101620001200E552E5CFDAFFE7CFD9FF1200010E35
:10163000E66EC4EC12F0E5520101FA2B000EFB231A
:101640001200F28CF28EC66A280EC66E1200D9CF36
:10165000E6FFDACFE6FFE1CFD9FFE2CFDAFF1200F3
:0A166000010E0101FD6FFE6B120088
:06166A0004011851600BA1
:10167000E842E842E842E842E842000901E012009C
:101680001951070A40E00B0A3EE0070A33E0010A5D
:1016900023E00B0A1FE0020A1DE0030A19E0080A12
:1016A00010E0010A0CE00F0A08E0030A01E0120052
:1016B0002FD90001040E696F120084EF0BF0BBEF0D
:1016C0000BF026D901016B0EE76F000EE86F0CD00E
:1016D000D6EF0BF008EF0CF01FD90101E76FE86BB4
:1016E0006C0EE727000EE82300016A930101010E4A
:1016F000ED6F120011D9EA6A6C0FE96E000EEA2252
:101700001AC4EFFF12001200800E0401185D32E1CE
:101710001B51030A21E0010A0CE0030A29E1F8D871
:101720000101920EE76F210EE86F000EE96F120EB5
:101730001CD0EED8400E146E220E156E000E99D8F5
:10174000020EF626000EF722F8220900F5CFEDF181
:101750000A00F5CFEEF10CD0DBD8460E146E220E47
:10176000156E000E86D80800F5500101ED6FEE6B86
:1017700000016A831200CCD80F0EE66E710EE66E81
:101780000F0EBAD8010EE66E6C0EE66E000EB4D8DF
:101790001AC46BF004011A5104E10001050E696FCF
:1017A00012000001060E696FC3EF0FF00401206BF9
:1017B000216B040118511F0B020A0FE0030A0BE012
:1017C000010A18E1A5D80401208100016AA112D004
:1017D000040120830FD09CD80DD079D801E0010EF0
:1017E00082D8EAC1E9FFEA6EEF50040B03E004017E
:1017F000010E206F0101E6050AE10101200EE76FED
:10180000040EE86F00016A930101020EED6F1200F1
:1018100004011A050EE118511F0B00090AE178D8DE
:10182000030E0401195D03E100016A8102D0000189
:101830006A9104011A511CE118511F0B020818E1AA
:101840001C510F0B000914E042D801E0010E4BD8E7
:10185000030E0401195D04E1840E55D8EF6E1200E9
:101860001CAF03D050D8EF6A1200880E4CD8EF6E30
:101870001200166E1AC417F0186A196A030E0C6E5D
:101880000D6A0E6A17C007F018C008F019C009F0F9
:1018900080EC10F014500424F36E15500520F46E03
:1018A00016500620F86EF4CFF7FFF3CFF6FF0900CD
:1018B000F5CFE7F10900F5CFE8F10800F5CFE9F140
:1018C000E7C1F6FFE8C1F7FFE9C1F8FF120024D82D
:1018D0000F0B080DF350156A000F146E040E15223D
:1018E0001C51800B1200040DF35001011424EA6F07
:1018F000000E1520EB6F1200E66EA8EC0FF0E5521B
:10190000E552E5521200EAC1E9FFEBC1EAFF12001D
:101910000101010EE66F1200FBDF04011C511200F1
:10192000E9CFE4FFEACFE4FFF6CFE4FFF7CFE4FF2F
:10193000F8CFE4FFF5CFE4FFF3CFE4FFF4CFE4FF0B
:10194000FACFE4FFFBCFE4FF00EE00F0140EE80452
:1019500003E3EECFE4FFFBD700EE14F0080EE8043B
:1019600003E3EECFE4FFFBD7E652E7EC07F0E552E6
:1019700000EE1BF0080EE80403E3E5CFEDFFFBD714
:1019800000EE13F0140EE80403E3E5CFEDFFFBD700
:10199000E5CFFBFFE5CFFAFFE5CFF4FFE5CFF3FF9F
:1019A000E5CFF5FFE5CFF8FFE5CFF7FFE5CFF6FF91
:1019B000E5CFEAFFE5CFE9FF11009FD80001646B96
:1019C000656BDED803E2010EB2D8FBD7BBEC09F0A1
:1019D00029EC08F0E5EC08F00001666B676B0A0E75
:1019E000665D000E67590EE2646B656B0C0E645DFC
:1019F000040E655903E20A0E9AD8F8D7662B000E3A
:101A00006723EDD7A4D80001646B656BB9D803E2F6
:101A10000A0E8DD8FBD71AEC05F000094CE0800EB9
:101A2000E66E250EE66EE66AB0D80001646B656B63
:101A300096D803E2010E7BD8FBD71AEC05F000091B
:101A400019E092D83C0E665D000E67590AE2646B9D
:101A5000656B85D802E271D8FCD7662B000E672330
:101A6000F1D70A0E9AD80001646B656B78D8F9E259
:101A700064D8FCD70001646B656B71D803E2140E67
:101A800056D8FBD751EC05F062D80001666B676B46
:101A90001E0E665D000E675916E2646B656BB80E2C
:101AA000645D0B0E655903E2010E41D8F8D7662B31
:101AB000000E6723EDD70001646B656B61D803E20C
:101AC0000A0E35D8FBD750D8280E665D000E675930
:101AD0000AE2646B656B43D802E22FD8FCD7662B11
:101AE000000E6723F1D715EC08F09D8A0001646BA6
:101AF000656B35D8FBE221D8FCD7100E926EC26A16
:101B00000F0EC16E3C0EC06E070EB46E9368BF0E12
:101B1000946EB90E956E040E8C6E966A8D6A1200E4
:101B200000EC0FF06FBE02D022EC0FF0120035D89F
:101B30000001642B000E65231200010E2ED8F0DF89
:101B40001CEC04F00001642B000E65231200400E13
:101B5000E66E0D0EE66E030EE66EC5EF0DF0240E7A
:101B6000645D040E65591200140E6F6E0001696BFE
:101B700000016A6B00016B6B0001666B676B120002
:101B8000020E645D040E65591200E66AABEC04F0C7
:101B9000E552E552E552E5521200E66E98EC12F07D
:041BA000E5521200F8
:0C1BA4006C5002E0000E01D0010E0009A0
:101BB0000BE0040100513C0BE842E8420D0802E151
:101BC000EDEF0DF0F7EF0DF06C5002E0000E01D0DC
:101BD000010E040901E01AD81200E6D80101E56BF4
:101BE000E66BED6BEE6B35EC0BF09DD8E7D0020E9B
:101BF0000101E55D09E16BD8040100BD02D0C80E0A
:101C000001D0880E006F1200CCEF0EF0040E000120
:101C1000695D09E11AC46EFF6E50000802E2050E0C
:101C200001D0030E696F0101E50509E10AD804013D
:101C300004BD02D0C80E01D0880E046F1200CCEF94
:101C40000EF0B2D8E6520101080EED5D000EEE591D
:101C500005E2EDC1DEFFEEC1DDFF03D0080EDE6E52
:101C6000DD6A040104930491010EDB500413DFCFFD
:101C700005F4000EDB500101ED5F010EDB50EE5B61
:101C8000200EEA6F040EEB6F00016AA311D0B1D8E9
:101C90001CE0E7C1F6FFE8C1F7FFE9C1F8FF080063
:101CA000F5509BD8E923DF06010EF1E2DB06EFD702
:101CB000A0D80BE0E7C1E9FFE8C1EAFFEF508DD8FB
:101CC000DF06010EF5E2DB06F3D7E55277D06CD8DC
:101CD000E652030E04010015E76E010EE7CFDBFFAD
:101CE00001C4DFFFDE500101ED27DD50EE23200EA1
:101CF000E76F040EE86F7DD814E0E7C1E9FFE8C1A3
:101D0000EAFFEF50EAC1E9FFEBC1EAFFEF6EEA2B11
:101D1000000EEB23E72BE823DF06010EECE2DB06E7
:101D2000EAD7E5524BD00101E65105E14ED8840EC9
:101D3000006F04011DD0040118AF1CD00101ED514A
:101D400004011E5D0101EE5104011F5904E21EC48D
:101D5000EDF11FC4EEF175DF0101010EE56F35D81D
:101D6000800E006F0401200E066F040E076FC80E70
:101D7000046F10D00101020EE56F0401056BC80E5F
:101D8000046F0401080E016F200E026F040E036F32
:101D9000C80E006F6D9812000101E56B16D8880E11
:101DA000006F0401046B1200D9CFE6FFDACFE6FF23
:101DB000E1CFD9FFE2CFDAFFE6521200E552E55259
:101DC000E5CFDAFFE7CFD9FF12000401080E016F5B
:101DD000180E026F040E036F1200EAC1E9FFEBC197
:101DE000EAFFEF6E0101EA2B000EEB23E72BE8235D
:101DF0001200D9CFE9FFDACFEAFFEE50ED10120062
:101E000080A804D06DB604D00FD802D06DB613D818
:101E10000001690508E16DBA06D0686A696A6980DF
:101E20006988020E696F12006D6A696A6D86000129
:101E3000010E696F12006D6A696A0001696B120018
:101E40001BEF0FF00001695101E112006850040B13
:101E500004E06950040B01E038D86DB212006850FC
:101E6000010B04E06950010B01E050D86850100BE1
:101E700004E06950100B01E024D86850400B04E0E6
:101E80006950400B01E037D86850200B04E06950DE
:101E9000200B01E032D86850020B04E06950020BBD
:101EA00001E032D8030E0001695D01E212006850C2
:101EB000080B06E06950080B03E0D2EC0DF06896C1
:101EC0001200698468986D8212006D92699468941A
:101ED000120000016AA10ED0F8DF6D840001080E27
:101EE0006D6F070E6E6F6D07000E6E5B6D516E119C
:101EF000FAE16D941200689C120070A003D0CCEC43
:101F00000EF07090689A1200689212006A6A686A0D
:101F10009F0E6B6E7B0E696E6E6A0F0EE66E710E13
:101F2000E66E0F0EE66E14D8E552E552E552160E37
:101F3000706E68A602D06896FCD76D98CCEC0EF057
:101F400000016A9100016B6B0001030E696F1200C2
:101F5000D9CFE6FFDACFE6FFE1CFD9FFE2CFDAFF54
:101F6000FC0EDBCFE9FFFD0EDBCFEAFFFB0EDB5003
:101F700004E0EE6AFB0EDB06F9D7E552E5CFDAFFA7
:061F8000E7CFD9FF1200BB
:0A1F86000101FF6B1E0E716E0401D5
:101F9000400E096F280E0A6F040E0B6F880E086F33
:101FA0000401680E0E6F040E0F6F400E0C6F1200CE
:101FB00064D8E652FB0EDB50400805E2400EF36E9B
:101FC000FB0EF3CFDBFFDF6AFB0EDB50DF5C0FE2C3
:101FD000DF5047D8EF50E66EDF50EA6A680FE96ECF
:101FE000040EEA22E552E750EF6EDF2AEDD7FB0E32
:101FF000DBCF0DF4400E04010C170C7D880E0C1382
:10200000E55244D03AD80101FF6B040108BF26D045
:10201000FB0EDBCF14F00951D880145403E2FB0E01
:1020200009C4DBFF0101FF6BFB0EDB50FF5D0FE21C
:10203000FF51EA6A280FE96E040EEA22EF50E66EBD
:10204000FF510FD8E552E750EF6EFF2BEDD704019B
:10205000400E096F0817087D880E08130101FF5113
:1020600015D0E76EFC0EDBCFE9FFFD0EDBCFEAFFFC
:10207000E750E926000EEA221200D9CFE6FFDACFB8
:10208000E6FFE1CFD9FFE2CFDAFF1200E552E5CF5C
:08209000DAFFE7CFD9FF1200CF
:08209800006AE86A0EAE59EF80
:1020A00010F00B6C0C1E0D1E0E1E0C220D220E22AB
:1020B000001E09AE64EF10F0066C071E081E091E14
:1020C000072208220922001EF3EC11F009BE7BEF63
:1020D00010F000AE000C066C071E081E091EE86A10
:1020E000072208220922026C031E041E051E032279
:1020F00004220522000C00BE6BEF10F00188FF0CDB
:1021000009C013F008C012F007C011F007500C020C
:10211000F4CF05F0F3CF04F008500D02F4CF07F030
:10212000F3CF06F00C02F3500526F4500622E86ABD
:10213000072211500D02F3500526F4500622E86ADA
:10214000072209500C02F3500626F45007220950CA
:102150000D02086AE86A0822F3500726F4500822A4
:1021600011500E02F3500626F4500722096AE86A5D
:102170000822092212500E02F3500726F4500822BA
:10218000E86A092213500E02F3500826F45009227F
:02219000000C41
:0E2192001201000200000008D804AFFE000099
:1021A000010200010902200001010080320904003F
:1021B0000002000000000705010340002007058120
:1021C0000340002004030904340354004800450080
:1021D0002000530049004C00490043004F004E00CE
:1021E000200048004F00520049005A004F004E00A6
:1021F0000000000000000000000000004403740024
:102200006500630068004600580000000000000000
:1022100000000000000000000000000000000000BE
:1022200000000000000000000000000000000000AE
:10223000000000000000000000000000000000009E
:0F224000A42100A42100C42100C82100FC21001A
:102250002A0EF66E080EF76E000EF86E01010900E8
:10226000F550F46F0900F550F56F03E1F46701D004
:102270003DD00900F550EF6F0900F550F06F0900EF
:10228000F550F16F09000900F550E96E0900F550AD
:10229000EA6E090009000900F550F26F0900F550D7
:1022A000F36F09000900F6CFF6F1F7CFF7F1F8CF99
:1022B000F8F1EFC1F6FFF0C1F7FFF1C1F8FF01013E
:1022C000F25302E1F35307E00900F550EE6EF20716
:1022D000F8E2F307F9D7F6C1F6FFF7C1F7FFF8C147
:0E22E000F8FF0101F407000EF55BBFD71200F6
:0222EE00415459
:1022F0005350303030320D0041545354303030346C
:102300000D004154534D300D00415441430D0041E7
:10231000544345300D0041544E494E4F4445310D14
:102320000041544D59310D004154444C340D00418D
:10233000544448300D004154494433330D00415456
:10234000434830430D0041544132300D0041544167
:102350003130300D00626C616800415457520D00FD
:102360004154424433306434300D004154434E0DE7
:05237000002B2B2B00E7
:0A23760006500B02F3CF02F0F4CF83
:1023800003F00C02F3500326000EF420046E0650F6
:102390000D02F3500426000EF420056E06500E02C6
:1023A000F350052607500B02F3500326F450042285
:1023B000000E052207500C02F3500426F4500522AB
:1023C00007500D02F350052608500B02F350042667
:1023D000F450052208500C02F350052609500B0258
:0623E000F3500526120077
:0A23E600056A046A036A026A200E09
:1023F000E76ED890063607360836093602360336B9
:10240000043605360B50025C0C5003580D5004582E
:102410000E50055809E30B50025E0C50035A0D5044
:0E242000045A0E50055A062AE72EE4D7120081
:02242E00D9CF04
:10243000E6FFDACFE6FFE1CFD9FFE2CFDAFFFD0E0C
:10244000DB507E0BCD6EFD0EDBAC02D0CD8E01D00D
:10245000CD9ECF6ACE6A9E90DBAE02D09D8001D029
:102460009D90CD80E552E5CFDAFFE7CFD9FF12008E
:10247000D9CFE6FFDACFE6FFE1CFD9FFE2CFDAFF2F
:10248000E652E652FC0EDBCFDEFFDBCFDDFF010EB6
:10249000DB50CF6EDF50CE6EE552E552E552E5CF10
:0824A000DAFFE7CFD9FF1200BB
:0824A800FF0EE3501D6EEF0E64
:1024B00001D0F30EE76EE72E5BEF12F00C0E1C6EF0
:1024C000E76AE72E61EF12F01C2E60EF12F01D2E6E
:0624D00059EF12F01200AA
:0A24D600D9CFE6FFDACFE6FFE1CF31
:1024E000D9FFE2CFDAFFACAC04D0AC9000016FB3FF
:1024F000AC80FD0EDB50AD6EE552E5CFDAFFE7CFE5
:04250000D9FF1200ED
:0C250400056A046A100EE76ED8900836D5
:102510000936043605360D50045C0E50055805E3A7
:102520000D50045E0E50055A082AE72EF0D712000F
:10253000FF0EE3501D6E480E01D04C0EE76EE72EE5
:10254000FED7E76AE72EFED71D2EF7D70000120050
:1025500013EE00F023EE00F0F86A019C28EC11F075
:0C256000DDEC12F0DDEC0CF0FBD71200FB
:04256C00FF0EE3502B
:102570001D6E1B0E00D001D0200EE76EE72EFED799
:082580001D2EFAD700D0120055
:08258800FF0EE350E84E1200C3
:0E259000000000D000D000D0E82EFAD71200D4
:02259E0000EE4D
:0C25A00000F00F0EEE6AEA62FDD7120098
:0425AC00C250020B0C
:0625B00001E0010E120023
:0425B600C2821200CB
:0225BA0012000D
:0425BC00000000001B
:0825C0003F001F0000010001B3
:020000040030CA
:0100000024DB
:010001008E70
:0100020031CC
:010003001EDE
:010005008179
:01000600A158
:010008000FE8
:01000900C036
:01000A000FE6
:01000B008074
:01000C000FE4
:01000D0040B2
:00000001FF
