:020000040000FA
:0600000097EF12F0120060
:0608000097EF12F0120058
:0608080097EF0CF0120056
:020818001200CC
:06082A0001009A25000008
:08083000D90100000C000000DA
:08083800060E0001695D05E3F5
:100840006D50020B01E0120001D81200D9CFE6FF73
:10085000DACFE6FFE1CFD9FFE2CFDAFFE652400E72
:10086000E66E020EE66E010EE66E0CEC10F0E5523E
:10087000E552E55200096FE00101006B01010251F0
:10088000FF0A56E05F0A2CE0A00A21E0440A18E0C3
:10089000EE0A01E04CD003C16BF104C16CF105C15B
:1008A0006DF106C16EF107C16FF16B0EE66E010EC0
:1008B000E66E62D9E552E5520101060E006F3AD0AC
:1008C0000101050E036F0101020E006F33D001011B
:1008D000046B0101010E056F0101040E006F2AD0A7
:1008E0000101035104E003C1E6FFFCDAE552010E09
:1008F00001014A6F4B6B0101150E4A5D000E4B5909
:1009000012E2B4DAE66E020E01014A25E96E010E2A
:1009100001014B21EA6EE552E750EF6E01014A2BCF
:10092000000E4B23E8D70101150E006F03D002D053
:10093000FF0000D0010100510EE004010CBF0BD0FC
:1009400000C1E6FF020EE66E010EE66EE2EC0FF06D
:10095000E552E552E552E552E552E5CFDAFFE7CF41
:10096000D9FF120009EC09F0ACA2FED7FD0EDB5056
:10097000AD6E12EF09F00AEC0FF06FBE02D02CEC56
:100980000FF0120009EC09F001016F6B546B556B0D
:10099000400E545D000E555907E2790E5425E96E5C
:1009A000010E8FEC09F0F4D7546B556B200E545D9B
:1009B000000E555907E2B90E5425E96E010E8FEC71
:1009C00009F0F4D7546B556B020E545D040E555963
:1009D00004E20A0E18EC09F0F7D7910EAB6EAB8E5D
:1009E000949C948E829E828C240EAC6E186A6C0E3F
:1009F000196EDC0E1A6E020E1B6E18C006F019C0BE
:100A000007F01AC008F0096EFA0EDBCF0BF0FB0EF0
:100A1000DBCF0CF0FC0EDBCF0DF0FD0EDBCF0EF0CC
:100A200055EC09F0040E0B6E0C6A0D6A0E6A55EC5B
:100A300009F01406000E155A165A175A14C073F10D
:100A400015C074F114C0AFFF15C014F01550B06E8E
:100A50009D9A9E9A480EB86E83948392AECF69F1A8
:100A6000E1D30101410E6B6F6C6F546B556B6BECF6
:100A700009F003E20B0EDCDBFAD7C00EE66E230EA4
:100A8000E66E000EA5EC09F00101546B556B6BECA2
:100A900009F003E20B0ECCDBFAD7E0DBBA0EE66E10
:100AA000230EE66E000EA5EC09F0D8DB4B0E01011B
:100AB0006C5D02E0000E01D0010E146E4F0E6B5DF6
:100AC00002E0000E01D0010E141401E0000C010C34
:100AD0000101546B556B6BEC09F003E20D0EA8DBC2
:100AE000FAD79EEC09F0AF0EE66E230EE66E000E0E
:100AF0008CDBA90EE66E230EE66E000E96EF09F073
:100B0000BAEC09F0E652660EF36E020EF3CFDBFF8D
:100B10000101566B576B300E565D750E575917E233
:100B2000020EE66EA5EC12F0E55286D800090AE046
:100B30000101300E566F750E576F330EF36E020EB5
:100B4000F3CFDBFF0101562B000E5723E4D7020E33
:100B5000DB5033080DE1DF6AFB0EDB50DF5C08E29F
:100B60006BD80009FDE06DDB01E3DB2ADF2AF4D757
:100B7000E552E552E55256D34CDB0101546B556BFF
:100B8000050E545D000E55590DE2B4DB47D8E55211
:100B9000FC0EDB2AFD0E01E3DB2A0101542B000EC3
:100BA0005523EED73FD335DB3FD8F3CF14F0F4CF46
:100BB00015F0F350F410F8E19DDB2DD8E552FC0E52
:100BC000DBCFE9FFDB2AFD0EDBCFEAFF01E3DB2A07
:100BD000EF50EAE1828C26D31CDBACA2FED741DBCE
:100BE00005E03FDBE66E5AEC12F0E552D950FB0F00
:100BF000E96EFF0EDA20EA6EEFCFF6FFEE2AEFCFB6
:100C0000F7FF000EEE22EFCFF8FFEE220800F550BE
:100C1000E4E1828C07D39CDBAD6E04D399DBAD6E2F
:100C2000ACA2FED7828CFED2ACB203D0010EF36E22
:100C300001D0F36AF46A12009EBA010C000C9ADB30
:100C4000DF6AFB0EDB50DF5C08E2F6DF0009FDE047
:100C5000F8DA01E3DB2ADF2AF4D7E552E552E2D2E3
:100C6000D8DAE652AE50DF6EDF50E552DBD270DBF1
:100C7000080A1CE00F0A18E0010A14E0030A10E059
:100C8000010A0CE0070A08E0010A04E0030A11E186
:100C9000C26A10D0040E0BD0080E09D00C0E07D07B
:100CA000100E05D0140E03D0180E01D01C0EC26E0B
:100CB00001D0C26AC280CAEC12F0C5EC12F0000981
:100CC000FCE106D8F3CF5AF1F4CF5BF1C290AAD27F
:100CD00051DBC350DF6E010EC4CFDBFFDECF14F05B
:100CE000DDCF15F014C0F3FF15C0F4FFE552E55257
:100CF00099D28FDAFC0EDBCF5EF1FD0EDBCF5FF118
:100D00000101606B616B5FAF02D060696169E40EE5
:100D10000B6E0C0E0C6ED4DA81EC11F002C05EF199
:100D200003C05FF104C060F105C061F10A0E01016A
:100D3000D890613360335F335E33E806F9E10A0E21
:100D40000B6E0C6ABDDAE2EC11F006C05EF107C072
:100D50005FF108C060F109C061F106C05CF107C035
:100D60005DF106C058F107C059F1640E0D6E0E6AB0
:100D700006C008F007C009F0B3DA6B6F2E0E6C6F77
:100D8000640EBCDA04C05CF105C05DF104C058F12A
:100D900005C059F10A0E0D6E0E6A04C008F005C0B8
:100DA00009F09EDA6D6F5CC158F15DC159F10A0E10
:100DB000A5DA04C058F105C059F1300E0101042430
:100DC0006E6F30D226DA01017551761102E0000E05
:100DD00001D0010E176E0101DD51D91902E1DE517A
:100DE000DA1902E0000E01D0010E47DA02E1765175
:100DF000151802E0000E01D0010E0101E1111610DC
:100E000032E1790ED925E96E010EDA21EA6EFD0E86
:100E1000DBCFEFFFDD51D95DDE51DA5903E3D96B4A
:100E2000DA6B03D0D92B000EDA23E26B0101755186
:100E3000761102E0000E01D0010E176E0101DD51A6
:100E4000D91902E1DE51DA1902E0000E01D0010EDB
:100E500014DA02E17651151802E0000E01D0010EFD
:100E6000161003E00101010EE16FDCD10101D9513F
:100E70000101751904E10101DA510101761902E05D
:100E8000000E01D0010E0101E21103E001014F6BE0
:100E900023D0790E01017525E96E010E7621EA6EE7
:100EA000EFCF4FF10101DD510101755D0101DE510F
:100EB0000101765903E3756B766B03D0752B000E39
:100EC00076230101E16BD9510101751908E1010196
:100ED000DA510101761903E10101010EE26F01010E
:100EE0004F51120096D901017751781102E0000E9E
:100EF00001D0010E176E0101DF51DB1902E1E05153
:100F0000DC1902E0000E01D0010EC3D902E17851D4
:100F1000151802E0000E01D0010E0101E3111610B8
:100F200032E1B90EDB25E96E010EDC21EA6EFD0E21
:100F3000DBCFEFFFDF51DB5DE051DC5903E3DB6B1F
:100F4000DC6B03D0DB2B000EDC23E46B010177515B
:100F5000781102E0000E01D0010E176E0101DF5181
:100F6000DB1902E1E051DC1902E0000E01D0010EB4
:100F700090D902E17851151802E0000E01D0010E5F
:100F8000161003E00101010EE36F4CD10101DB51AA
:100F90000101771904E10101DC510101781902E036
:100FA000000E01D0010E0101E41103E001014F6BBD
:100FB00023D0B90E01017725E96E010E7821EA6E82
:100FC000EFCF4FF10101DF510101775D0101E051E8
:100FD0000101785903E3776B786B03D0772B000E10
:100FE00078230101E36BDB510101771908E101016D
:100FF000DC510101781903E10101010EE46F0101E7
:101000004F511200A5D902E1300E04D0FD0EDB04D1
:1010100001E1310E07D19EAA0AD08394AECF69F1C7
:101020000101E15104E169C1E6FFCCDEE5529EA079
:1010300020D06CD94BD80101E4511AE10101716B48
:10104000726B050E715D000E725912E29FDF010195
:101050006A6F6A5105E06AC1E6FFE0DDE55203D040
:10106000050E716F726B0101712B000E7223E9D7AF
:101070009E9012000101656B666B636B626B646B23
:10108000686BBD6ABA6A9D80D09EF28CF28EFD0EAE
:10109000E66E06EC12F0E55286EF09F0BD6ABA6A18
:1010A000C26A0F0EC16EFD0EC06E070EB46E100E3A
:1010B000926E9368BF0E946EB90E956E966A896AA9
:1010C0008A6A8B6A040E8C6E8D6A1200030E01010F
:1010D000625D3DE3626B3ED8090E0101635D34E35E
:1010E000636B39D83B0E0101665D2BE3666B34D828
:1010F0003B0E0101655D22E3656B2FD8170E0101E0
:10110000645D19E32BD801016851146E156AD890FB
:10111000155004E6FE0E145C000E155809E31FD8A6
:101120000101686B656B666B626B636B646B1200CD
:10113000682BAFEF08F0642BAEEF08F0652BADEF36
:1011400008F0662BACEF08F0632BABEF08F0622BD6
:10115000AAEF08F012001200120012001200120092
:101160000101546B556BB7D803E21E0E61D8FBD753
:10117000E5D8A10EE66E230EE66E000E46D8990E57
:10118000E66E230EE66E000E40D8910EE66E230E3C
:10119000E66E000E3AD8870EE66E230EE66E000E5F
:1011A00034D8800EE66E230EE66E000E2ED8790E31
:1011B000E66E230EE66E000E28D8720EE66E230E43
:1011C000E66E000EB3D00101546B556B84D803E278
:1011D0001E0E2ED8FBD7B2D8800EE66E230EE66E1A
:1011E000000EA4D00F0EC16E92909292929492969D
:1011F000929A9690969296948090809280948096FF
:10120000809A84908492849412009FD8A5D817DD88
:10121000B5D0D9CFE6FFDACFE6FFE1CFD9FFE2CFF5
:10122000DAFF1200E552E5CFDAFFE7CFD9FF12006F
:10123000E66E87EC12F0E5520101542B000E5523A7
:1012400012000EDDE76E010EE7CFDBFF8CD8010E3A
:10125000DBCFEFFFFC0EDB2AFD0E12007DD850DC49
:101260008DD0FB0EDBCFF6FFFC0EDBCFF7FFFD0EC4
:10127000DBCFF8FF0800F55012001714166E010EB0
:10128000156AD925146EDA51152201017551141809
:1012900012001714166E010E156ADB25146EDC5150
:1012A0001522010177511418120056EC10F006C0F7
:1012B00014F007C015F008C016F009C017F01200AE
:1012C0000D6A0E6A5EC106F05FC107F060C108F0EA
:1012D00061C109F01200240E545D040E555912002C
:1012E00071EC12F008C058F109C059F1300E01013B
:1012F0000824120038D8EF50E66E12000D6E0E6A08
:101300005CC108F05DC109F071EF12F0C40EE66E29
:101310006D0EE66E27EC12F0E552E55212005521F3
:10132000EA6EEF6A542B000E552312006EDFBA0EE0
:10133000E66E230EE66E000E05EF09F0C00EE66EB7
:10134000230EE66E000E05EF09F0E66E45DC16D0C2
:1013500060DFFD0EDB501200030EE66E6B0EE66ED4
:10136000010EE66E1200FC0EDBCFE9FFFD0EDBCFB7
:10137000EAFF12004EDFE652E6521200E552E55255
:04138000E552120020
:0C138400C66A800EC76E770EC86E280E79
:10139000C66EC56A93809382120043D9C750040B6E
:1013A00001E0010E34D9FAE1C580C5B0FED7A1B67F
:1013B0004AD0FD0E26D943E1C750040B01E0010ECF
:1013C00026D9FAE1C5BC3BD0FC0E1BD938E1C75089
:1013D000040B01E0010E1BD9FAE1C5BC30D0FB0EB5
:1013E00010D92DE1C750040B01E0010E10D9FAE12C
:1013F000C5BC25D0C582C5B2FED7A1B620D0FD0E92
:10140000DB28E66E7CD8E552000919E1C750040BD1
:1014100001E0010EFCD8FAE1C5BC11D0C58694D814
:101420000101FC6FE80402E1010E0BD0C58AC588FA
:10143000C5B8FED7C584C5B4FED7A1A60BD0010E92
:101440000101FD6FFE6BC66A280EC66E010EF36EBB
:10145000F46A06D0FDD8C950156AF36E15C0F4FFC2
:10146000E7D0DFD8C750040B01E0010ED0D8FAE175
:10147000C580C5B0FED7A1A602D0F9D83BD0FD0EDD
:10148000C0D821E1C750040B01E0010EC0D8FAE139
:10149000C5BC1CD0FC0EB5D816E1C750040B01E04A
:1014A000010EB5D8FAE1C5BC11D0FB0EAAD80BE1EC
:1014B000C750040B01E0010EAAD8FAE1C5BC06D062
:1014C000FA0E9FD806E0A8D8FD0E18D0A5D8FE0EBB
:1014D00015D0C750040B01E0010E99D8FAE1C5847C
:1014E000C5B4FED7050EE66E43EC12F0E552A1A698
:1014F00003D092D8FF0E02D0ABD8000E99D0AED850
:10150000FD0EDB50C96EC6AE02D0FF0E1CD001012D
:10151000FA6BFB6BD890FB5104E6F40EFA5D010EFA
:10152000FB5910E2F30EFA1907E1010EFB1904E171
:10153000010EFD6FFE6B07D0C7B002D0000E03D0C6
:101540007DD8E8D7000E74D00101FA6BFB6BD89000
:10155000FB5104E6F40EFA5D010EFB590EE2F30EA8
:10156000FA1907E1010EFB1904E1010EFD6FFE6B94
:10157000010CC5A6000C62D8EAD7000C52D8C7509F
:10158000040B01E0010E43D8FAE1C580C5B0FED7D7
:10159000A1A602D06CD830D0FD0E33D816E1C750CA
:1015A000040B01E0010E33D8FAE1C5BC11D0FC0EEA
:1015B00028D80BE1C750040B01E0010E28D8FAE14E
:1015C000C5BC06D0FB0E1DD806E026D8FD0E18D0EF
:1015D00023D8FE0E15D0C750040B01E0010E17D81A
:1015E000FAE1C584C5B4FED7050EE66E43EC12F0F1
:1015F000E552A1A603D010D8FF0E02D029D8000EC4
:1016000017D0DBCFE6FF7BDFE55200091200146E36
:101610001F0EC514141012002AD8C66A280EC66EF2
:1016200012001CD8F29CF29E0101FD6BFE6B1200B1
:10163000E552E5CFDAFFE7CFD9FF1200010EE66EE3
:10164000B3EC12F0E5520101FA2B000EFB2312005D
:10165000F28CF28EC66A280EC66E1200D9CFE6FF53
:10166000DACFE6FFE1CFD9FFE2CFDAFF1200010EB9
:081670000101FD6FFE6B120089
:0816780004011851600BE84267
:10168000E842E842E842E842000901E0120019514C
:10169000070A40E00B0A3EE0070A33E0010A23E0B4
:1016A0000B0A1FE0020A1DE0030A19E0080A10E015
:1016B000010A0CE00F0A08E0030A01E012002FD92A
:1016C0000001040E696F12008BEF0BF0C2EF0BF0FC
:1016D00026D901016B0EE76F000EE86F0CD0DDEF2D
:1016E0000BF00FEF0CF01FD90101E76FE86B6C0EE8
:1016F000E727000EE82300016A930101010EED6F58
:10170000120011D9EA6A6C0FE96E000EEA221AC4BF
:10171000EFFF12001200800E0401185D32E11B5130
:10172000030A21E0010A0CE0030A29E1F8D80101CB
:10173000A60EE76F210EE86F000EE96F120E1CD0A7
:10174000EED8540E146E220E156E000E99D8020EAD
:10175000F626000EF722F8220900F5CFEDF10A0077
:10176000F5CFEEF10CD0DBD85A0E146E220E156EAA
:10177000000E86D80800F5500101ED6FEE6B0001F8
:101780006A831200CCD80F0EE66E710EE66E0F0E55
:10179000BAD8010EE66E6C0EE66E000EB4D81AC40E
:1017A0006BF004011A5104E10001050E696F12008B
:1017B0000001060E696FCDEF0FF00401206B216B65
:1017C000040118511F0B020A0FE0030A0BE0010A83
:1017D00018E1A5D80401208100016AA112D00401FA
:1017E00020830FD09CD80DD079D801E0010E82D88B
:1017F000EAC1E9FFEA6EEF50040B03E00401010EB9
:10180000206F0101E6050AE10101200EE76F040ED9
:10181000E86F00016A930101020EED6F12000401EE
:101820001A050EE118511F0B00090AE178D8030EC2
:101830000401195D03E100016A8102D000016A918F
:1018400004011A511CE118511F0B020818E11C5128
:101850000F0B000914E042D801E0010E4BD8030E33
:101860000401195D04E1840E55D8EF6E12001CAF1F
:1018700003D050D8EF6A1200880E4CD8EF6E1200D9
:10188000166E1AC417F0186A196A030E0C6E0D6AE8
:101890000E6A17C007F018C008F019C009F08AECEA
:1018A00010F014500424F36E15500520F46E1650F9
:1018B0000620F86EF4CFF7FFF3CFF6FF0900F5CF5F
:1018C000E7F10900F5CFE8F10800F5CFE9F1E7C14C
:1018D000F6FFE8C1F7FFE9C1F8FF120024D80F0BAB
:1018E000080DF350156A000F146E040E15221C51DA
:1018F000800B1200040DF35001011424EA6F000E56
:101900001520EB6F1200E66EB2EC0FF0E552E552D7
:10191000E5521200EAC1E9FFEBC1EAFF1200010142
:0E192000010EE66F1200FBDF04011C511200E5
:02192E00E9CFFF
:10193000E4FFEACFE4FFF6CFE4FFF7CFE4FFF8CF10
:10194000E4FFF5CFE4FFF3CFE4FFF4CFE4FFFACFF9
:10195000E4FFFBCFE4FF00EE00F0140EE80403E325
:10196000EECFE4FFFBD700EE14F0080EE80403E32B
:10197000EECFE4FFFBD7E6520BEC08F0E55200EEA9
:101980001BF0080EE80403E3E5CFEDFFFBD700EE04
:1019900013F0140EE80403E3E5CFEDFFFBD7E5CF2A
:1019A000FBFFE5CFFAFFE5CFF4FFE5CFF3FFE5CF8F
:1019B000F5FFE5CFF8FFE5CFF7FFE5CFF6FFE5CF81
:1019C000EAFFE5CFE9FF1100A2D80001646B656B67
:1019D000E1D803E2010EB5D8FBD7C2EC09F04EEC1A
:1019E00008F0F2EC08F00001666B676B0A0E665DAA
:1019F000000E67590EE2646B656B0C0E645D040E9D
:101A0000655903E20A0E9DD8F8D7662B000E6723AE
:101A1000EDD7A7D80001646B656BBCD803E20A0E52
:101A200090D8FBD731EC05F000094CE0800EE66E53
:101A3000250EE66EE66AB3D80001646B656B99D833
:101A400003E2010E7ED8FBD731EC05F0000919E066
:101A500095D83C0E665D000E67590AE2646B656BB3
:101A600088D802E274D8FCD7662B000E6723F1D722
:101A70000A0E9DD80001646B656B7BD8F9E267D8CC
:101A8000FCD70001646B656B74D803E2140E59D85F
:101A9000FBD768EC05F065D80001666B676B1E0E1E
:101AA000665D000E675916E2646B656BB80E645D87
:101AB0000B0E655903E2010E44D8F8D7662B000ED1
:101AC0006723EDD70001646B656B64D803E20A0EEF
:101AD00038D8FBD7B0EC08F0839450D8280E665D58
:101AE000000E67590AE2646B656B43D802E22FD897
:101AF000FCD7662B000E6723F1D73AEC08F09D8ADD
:101B00000001646B656B35D8FBE221D8FCD7100E61
:101B1000926EC26A0F0EC16E3C0EC06E070EB46E9E
:101B20009368BF0E946EB90E956E040E8C6E966A15
:101B30008D6A12000AEC0FF06FBE02D02CEC0FF091
:101B4000120035D80001642B000E65231200010E2F
:101B50002ED8F0DF1CEC04F00001642B000E65238E
:101B60001200400EE66E0D0EE66E030EE66ECFEF2F
:101B70000DF0240E645D040E65591200140E6F6E94
:101B80000001696B00016A6B00016B6B0001666B01
:101B9000676B1200020E645D040E65591200E66A5E
:101BA000C2EC04F0E552E552E552E5521200E66E51
:081BB00087EC12F0E55212006F
:081BB8006C5002E0000E01D0A8
:101BC000010E00090BE0040100513C0BE842E84221
:101BD0000D0802E1F7EF0DF001EF0EF06C5002E09E
:101BE000000E01D0010E040901E01AD81200E6D857
:101BF0000101E56BE66BED6BEE6B3CEC0BF09DD8F9
:101C0000E7D0020E0101E55D09E16BD8040100BDDA
:101C100002D0C80E01D0880E006F1200D6EF0EF071
:101C2000040E0001695D09E11AC46EFF6E500008E0
:101C300002E2050E01D0030E696F0101E50509E11D
:101C40000AD8040104BD02D0C80E01D0880E046F6A
:101C50001200D6EF0EF0B2D8E6520101080EED5D8B
:101C6000000EEE5905E2EDC1DEFFEEC1DDFF03D04F
:101C7000080EDE6EDD6A040104930491010EDB5050
:101C80000413DFCF05F4000EDB500101ED5F010E00
:101C9000DB50EE5B200EEA6F040EEB6F00016AA3CF
:101CA00011D0B1D81CE0E7C1F6FFE8C1F7FFE9C1E8
:101CB000F8FF0800F5509BD8E923DF06010EF1E29A
:101CC000DB06EFD7A0D80BE0E7C1E9FFE8C1EAFFE8
:101CD000EF508DD8DF06010EF5E2DB06F3D7E552B3
:101CE00077D06CD8E652030E04010015E76E010EA2
:101CF000E7CFDBFF01C4DFFFDE500101ED27DD5040
:101D0000EE23200EE76F040EE86F7DD814E0E7C1E4
:101D1000E9FFE8C1EAFFEF50EAC1E9FFEBC1EAFFE2
:101D2000EF6EEA2B000EEB23E72BE823DF06010E14
:101D3000ECE2DB06EAD7E5524BD00101E65105E1C2
:101D40004ED8840E006F04011DD0040118AF1CD0C2
:101D50000101ED5104011E5D0101EE5104011F5905
:101D600004E21EC4EDF11FC4EEF175DF0101010EA6
:101D7000E56F35D8800E006F0401200E066F040E4B
:101D8000076FC80E046F10D00101020EE56F040149
:101D9000056BC80E046F0401080E016F200E026F60
:101DA000040E036FC80E006F6D9812000101E56B01
:101DB00016D8880E006F0401046B1200D9CFE6FF1D
:101DC000DACFE6FFE1CFD9FFE2CFDAFFE652120029
:101DD000E552E552E5CFDAFFE7CFD9FF1200040163
:101DE000080E016F180E026F040E036F1200EAC195
:101DF000E9FFEBC1EAFFEF6E0101EA2B000EEB23D6
:101E0000E72BE8231200D9CFE9FFDACFEAFFEE5043
:041E1000ED101200BF
:0C1E140080A804D06DB604D00FD802D016
:101E20006DB613D80001690508E16DBA06D0686A7D
:101E3000696A69806988020E696F12006D6A696A51
:101E40006D860001010E696F12006D6A696A0001FA
:101E5000696B120025EF0FF00001695101E11200DA
:101E60006850040B04E06950040B01E038D86DB2EF
:101E700012006850010B04E06950010B01E050D8DA
:101E80006850100B04E06950100B01E024D8685032
:101E9000400B04E06950400B01E037D86850200B3C
:101EA00004E06950200B01E032D86850020B04E0D6
:101EB0006950020B01E032D8030E0001695D01E2B6
:101EC00012006850080B06E06950080B03E0DCECD8
:101ED0000DF068961200698468986D8212006D9208
:101EE00069946894120000016AA10ED0F8DF6D8435
:101EF0000001080E6D6F070E6E6F6D07000E6E5BB2
:101F00006D516E11FAE16D941200689C120070A080
:101F100003D0D6EC0EF07090689A1200689212000E
:101F20006A6A686A9F0E6B6E7B0E696E6E6A0F0E30
:101F3000E66E710EE66E0F0EE66E14D8E552E552AF
:101F4000E552160E706E68A602D06896FCD76D98A2
:101F5000D6EC0EF000016A9100016B6B0001030EDC
:101F6000696F1200D9CFE6FFDACFE6FFE1CFD9FFE4
:101F7000E2CFDAFFFC0EDBCFE9FFFD0EDBCFEAFF9D
:101F8000FB0EDB5004E0EE6AFB0EDB06F9D7E552F0
:0A1F9000E5CFDAFFE7CFD9FF12001A
:061F9A000101FF6B1E0EA9
:101FA000716E0401400E096F280E0A6F040E0B6F4C
:101FB000880E086F0401680E0E6F040E0F6F400E3E
:101FC0000C6F120064D8E652FB0EDB50400805E2AD
:101FD000400EF36EFB0EF3CFDBFFDF6AFB0EDB5030
:101FE000DF5C0FE2DF5047D8EF50E66EDF50EA6A61
:101FF000680FE96E040EEA22E552E750EF6EDF2A21
:10200000EDD7FB0EDBCF0DF4400E04010C170C7D59
:10201000880E0C13E55244D03AD80101FF6B04013D
:1020200008BF26D0FB0EDBCF14F00951D880145422
:1020300003E2FB0E09C4DBFF0101FF6BFB0EDB506B
:10204000FF5D0FE2FF51EA6A280FE96E040EEA22F3
:10205000EF50E66EFF510FD8E552E750EF6EFF2BC1
:10206000EDD70401400E096F0817087D880E08138C
:102070000101FF5115D0E76EFC0EDBCFE9FFFD0E2D
:10208000DBCFEAFFE750E926000EEA221200D9CFA3
:10209000E6FFDACFE6FFE1CFD9FFE2CFDAFF1200A9
:0C20A000E552E5CFDAFFE7CFD9FF1200D0
:0420AC00006AE86A74
:1020B0000EAE63EF10F00B6C0C1E0D1E0E1E0C22EC
:1020C0000D220E22001E09AE6EEF10F0066C071EE8
:1020D000081E091E072208220922001EE2EC11F048
:1020E00009BE85EF10F000AE000C066C071E081E3E
:1020F000091EE86A072208220922026C031E041E38
:10210000051E032204220522000C00BE75EF10F00C
:102110000188FF0C09C013F008C012F007C011F0CD
:1021200007500C02F4CF05F0F3CF04F008500D0275
:10213000F4CF07F0F3CF06F00C02F3500526F4506D
:102140000622E86A072211500D02F3500526F450CA
:102150000622E86A072209500C02F3500626F450C2
:10216000072209500D02086AE86A0822F350072680
:10217000F450082211500E02F3500626F4500722A4
:10218000096AE86A0822092212500E02F350072653
:10219000F4500822E86A092213500E02F350082670
:0621A000F4500922000CBE
:0A21A6001201000200000008D80436
:1021B000AFFE0000010200010902200001010080C1
:1021C000320904000002000000000705010340007E
:1021D0002007058103400020040309043403540050
:1021E000480045002000530049004C0049004300CE
:1021F0004F004E00200048004F00520049005A0096
:102200004F004E0000000000000000000000000031
:102210004403740065006300680046005800000035
:1022200000000000000000000000000000000000AE
:10223000000000000000000000000000000000009E
:10224000000000000000000000000000000000008E
:1022500000000000B82100B82100D82100DC2100D6
:0322600010220049
:0C2264002A0EF66E080EF76E000EF86EE3
:1022700001010900F550F46F0900F550F56F03E115
:10228000F46701D03DD00900F550EF6F0900F5501B
:10229000F06F0900F550F16F09000900F550E96E83
:1022A0000900F550EA6E090009000900F550F26FC7
:1022B0000900F550F36F09000900F6CFF6F1F7CFEA
:1022C000F7F1F8CFF8F1EFC1F6FFF0C1F7FFF1C178
:1022D000F8FF0101F25302E1F35307E00900F55062
:1022E000EE6EF207F8E2F307F9D7F6C1F6FFF7C191
:1022F000F7FFF8C1F8FF0101F407000EF55BBFD747
:022300001200C9
:0E23020006500B02F3CF02F0F4CF03F00C02F2
:10231000F3500326000EF420046E06500D02F35015
:102320000426000EF420056E06500E02F35005261A
:1023300007500B02F3500326F4500422000E05222E
:1023400007500C02F3500426F450052207500D02EA
:10235000F350052608500B02F3500426F4500522D2
:1023600008500C02F350052609500B02F3500526C5
:02237000120059
:0E2372004154444C300D0041544448300D009D
:102380004154534D300D0041544E49484F53540D64
:102390000041544E4A46460D004154494433330DE2
:1023A000004154534331320D00415457520D004106
:1023B00054424433306434300D004154434E0D00D8
:0423C0002B2B2B0098
:0C23C400056A046A036A026A200EE76ED4
:1023D000D8900636073608360936023603360436F4
:1023E00005360B50025C0C5003580D5004580E502B
:1023F000055809E30B50025E0C50035A0D50045A65
:0C2400000E50055A062AE72EE4D7120001
:04240C00D9CFE6FF3F
:10241000DACFE6FFE1CFD9FFE2CFDAFFFD0EDB50E6
:102420007E0BCD6EFD0EDBAC02D0CD8E01D0CD9EED
:10243000CF6ACE6A9E90DBAE02D09D8001D09D9087
:0E244000CD80E552E5CFDAFFE7CFD9FF1200DD
:02244E00D9CFE4
:10245000E6FFDACFE6FFE1CFD9FFE2CFDAFFE652BF
:10246000E652FC0EDBCFDEFFDBCFDDFF010EDB50E3
:10247000CF6EDF50CE6EE552E552E552E5CFDAFF82
:06248000E7CFD9FF1200B6
:0A248600FF0EE3501D6EEF0E01D0B3
:10249000F30EE76EE72E4AEF12F00C0E1C6EE76AA1
:1024A000E72E50EF12F01C2E4FEF12F01D2E48EFCA
:0424B00012F0120014
:0C24B400D9CFE6FFDACFE6FFE1CFD9FF79
:1024C000E2CFDAFFACAC04D0AC9000016FB3AC80CB
:1024D000FD0EDB50AD6EE552E5CFDAFFE7CFD9FF59
:0224E0001200E8
:0E24E200056A046A100EE76ED89008360936B7
:1024F000043605360D50045C0E50055805E30D50AA
:0E250000045E0E50055A082AE72EF0D712008E
:02250E00FF0EBE
:10251000E3501D6E480E01D04C0EE76EE72EFED73D
:0E252000E76AE72EFED71D2EF7D70000120047
:02252E0013EEAA
:1025300000F023EE00F0F86A019C32EC11F0CCECD4
:0A25400012F0E4EC0CF0FBD71200DF
:06254A00FF0EE3501D6EC0
:102550001B0E00D001D0200EE76EE72EFED71D2EF9
:06256000FAD700D01200C2
:0A256600FF0EE350E84E12000000E3
:0C25700000D000D000D0E82EFAD71200F6
:04257C0000EE00F07D
:0A2580000F0EEE6AEA62FDD71200AA
:06258A00C250020B01E04B
:04259000010E120026
:04259400C2821200ED
:0225980012002F
:06259A00000000003F00FC
:0625A0001F000001000114
:020000040030CA
:0100000024DB
:010001008E70
:0100020031CC
:010003001EDE
:010005008179
:01000600A158
:010008000FE8
:01000900C036
:01000A000FE6
:01000B008074
:01000C000FE4
:01000D0040B2
:00000001FF
